:020000040800F2
:10000000A80500200101000885290008CB2100086F
:1000100099280008110A0008A52C0008000000001B
:100020000000000000000000000000008929000816
:10003000130A000800000000872900082D2A000884
:100040001B0100081B0100081B0100081B01000820
:100050001B0100081B0100081B0100081B01000810
:100060001B0100081B0100081B0100081B01000800
:100070001B0100081B0100081B0100081B010008F0
:100080001B0100081B0100081B0100081B010008E0
:100090001B0100081B0100081B0100081B010008D0
:1000A0001B010008912A00081B0100081B01000821
:1000B0001B0100081B0100081B0100081B010008B0
:1000C0001B0100081B0100081B0100081B010008A0
:1000D0001B0100081B0100081B0100081B01000890
:1000E0001B0100081B0100081B010008DFF80CD0F1
:1000F00000F07CFC00480047453D0008A8050020B2
:100100000648804706480047FEE7FEE7FEE7FEE7B1
:10011000FEE7FEE7FEE7FEE7FEE7FEE78F2A0008C0
:10012000ED000008202A04DB203A21FA02F0002129
:10013000704721FA02F3D040C2F1200291400843F7
:1001400019467047D2B201E000F8012B491EFBD2DC
:1001500070470022F6E710B513460A4604461946D2
:10016000FFF7F0FF204610BDF0B480EA0102D40F83
:100170004200B2EB410F02D20246084611464A0045
:1001800042D0C30DDDB2C1F3C752AD1A202D35DA0E
:10019000C1F3160141F4000204B15242C5F1200638
:1001A00002FA06F12A411044B3EBD05F23D0C4B168
:1001B000012DA0EBC35009DCF0BC4FF0004202EA75
:1001C000C352DBB200F5000000F0ECBA400000F1D1
:1001D000807000EBC350A0F1807040EAD1704900FC
:1001E00009E0490841EAC071A0EBC35000F50000E6
:1001F000400800EBC350F0BC00F0CBBA61420122D2
:1002000002EB4101001BF6E7F0BC704781F00041B2
:10021000AAE780F00040A7E780EA010210B502F0EB
:100220000043400022D04A001FD0010E01EB1261B2
:10023000C0F35600C2F3560240F4000042F400023C
:10024000A0FB022000047F39140400D0401C50EAB7
:10025000124001D44000491EC2B20C0604EBD0107B
:10026000401C4008802A02D003E0002010BD20F08E
:100270000100002900DA0020184310BD30B480EAE4
:10028000010202F0004530F0004221F0004013D09E
:1002900090B1C30DD40DC2F31601C0F31600E41AD9
:1002A00041F4000140F400027D34914201D3641C0A
:1002B00000E04900002C02DA30BC002070474FF407
:1002C00000000023914201D3891A034340084FEAFA
:1002D0004101F7D151B1914202D14FF0004105E007
:1002E00002D24FF0010101E06FF0010103EBC450B5
:1002F000284430BC00F04DBA420005D0C0F3C752CC
:100300005242914201DC0020704700EBC15070471F
:100310002DE9FE4F804681EA0300C00F0C46009095
:1003200021F0004123F00045B8EB0200A94105D2BD
:100330004046214690461C460B46024623F00040AC
:10034000104347D0270DC7F30A00C3F30A510290A8
:10035000401A019040286BDAC3F3130040F4801B6D
:100360000098924620B10023D2EB030A63EB0B0BFB
:1003700001985946C0F14002504600F0E9F906469E
:100380000D4650465946019A00F0F1F910EB08006D
:100390006141002487EA115284EAE7731A4340D08E
:1003A000009A62B3019A012A4FEA075215DC001B3A
:1003B00061EB02014FF0004202EA0752CDE9004230
:1003C000001C41F5801132462B4600F028FA03B09C
:1003D000BDE8F08F40462146F9E7001B61EB0201C2
:1003E000001C41F5801300185B412018A2F500178E
:1003F00047EB030140EAD570B6196D4111E06D0875
:100400004FEA360645EAC0754FEA0752001B61EB1A
:100410000201001C41F5801149084FEA3000001923
:10042000514132462B4603B0BDE8F04F00F0E8B929
:100430000098012240000023D0EB020263EBE0733E
:10044000009821464FEAE074B8EB000061EB04012C
:10045000E9E783F000435BE781F0004158E72DE9CD
:10046000FE4F81EA030404F0004421F000410094AF
:100470004FF0000B23F0004350EA01045ED052EA33
:1004800003045BD0C3F30A54C1F30A552C44A4F20D
:10049000F3340194A0FB0254C1F3130141F4801121
:1004A000C3F3130343F4801301FB024400FB034E28
:1004B000840A970A44EA815447EA8357A4FB0768F1
:1004C00002958D0A05FB07854FEA932C04FB0C541B
:1004D0002705029D4FEA065847EA1637B5EB08058F
:1004E0006EEB070C870E920E47EA811742EA8312E1
:1004F000A7FB0201B6EB0B0164EB00042B0D43EAF2
:100500000C335E1844EB1C50DA465146E7FB0201FF
:10051000C5F313044FEA0B3343EA14534FEA043292
:10052000019C43EA0603A4F10C040294009CCDE96B
:1005300000B400F074F903B0BDE8F08F002001466C
:10054000F9E72DE9F04D81EA030404F0004B21F0B6
:10055000004514464FF0000A23F0004150EA05021E
:1005600020D054EA01021DD0C5F30A570246C5F354
:100570001303C1F31300C1F30A5640F4801543F48A
:100580008013A7EB0608101BD64608F2FD3873EB64
:10059000050002D308F1010801E092185B41B8F1AF
:1005A000000F03DA00200146BDE8F08D00204FF473
:1005B0008011064684460EE0171B73EB050705D332
:1005C000121B63EB050306434CEA010C49084FEA92
:1005D000300092185B4150EA0107EDD152EA030066
:1005E00012D082EA040083EA0501084305D0101BFB
:1005F000AB4106D20122002306E000224FF0004367
:1006000002E06FF0010253101AEB06004CEB0851A8
:1006100010EB0A0041EB0B01BDE8F04D00F0F0B823
:10062000C10F80EAE0700844CA079623002100F059
:10063000B9B800F0004220F00040C10DC0F3160030
:1006400040F400007F2901DA00207047962903DC7E
:10065000C1F19601C84001E096398840002AF4D0E3
:100660004042704700F0004230F000400AD0C10D17
:1006700001F56071C0F3160042EA0151C20840075B
:100680001143704700200146704701F0004330B429
:1006900021F0004150EA010206D00A0DA2F5607275
:1006A000C1F31301002A02DC30BC00207047440F64
:1006B00044EAC104C100E01830BC00EBC25000F0B5
:1006C00068B830B50B46014600202022012409E01D
:1006D00021FA02F59D4205D303FA02F5491B04FAFB
:1006E00002F52844151EA2F10102F1DC30BD2DE90E
:1006F000F05F0546002092469B46884606468146A6
:1007000040241BE02846414647462246FFF70AFDA3
:1007100053465A46C01A914110D3114618462246F4
:1007200000F016F82D1A67EB01084F46224601200B
:10073000002100F00DF817EB00094E41201EA4F136
:100740000104DFDC484631462A464346BDE8F09FB7
:10075000202A04DB203A00FA02F100207047914081
:10076000C2F1200320FA03F3194390407047202A76
:1007700006DBCB17203A41FA02F043EAE07306E0C9
:1007800041FA02F3D040C2F12002914008431946D9
:1007900070470029A8BF7047401C490008BF20F0DF
:1007A0000100704710B4B0FA80FC00FA0CF050EA77
:1007B000010404BF10BC704749B1CCF1200421FAF8
:1007C00004F411FA0CF118BF012121430843A3EBF3
:1007D0000C01CB1D4FEA00614FEA102042BF002000
:1007E00010BC704700EBC35010440029A4BF10BCDC
:1007F0007047401C490008BF20F0010010BC704742
:1008000010B5141E73F1000408DA401C41F1000118
:1008100092185B411A4301D120F0010010BD2DE96F
:10082000F04D92469B4611B1B1FA81F202E0B0FA66
:1008300080F220329046FFF78BFF04460F4640EAD5
:100840000A0041EA0B0153465A46084313D01146A9
:1008500053EA010019D0C8F140025046FFF762FC8C
:1008600005460E46504659464246FFF771FF08437B
:1008700005D0012004E020463946BDE8F08D002077
:10088000054346EAE0762C4337430A986305E40AB9
:10089000A0EB08000022FD0A44EA47540A3002D5C2
:1008A00000200146E9E7010510196941DDE9084525
:1008B00000196941BDE8F04DA2E770B521F0004391
:1008C00003430CD0C1F30A550024D5EB040564EBB7
:1008D0000403D617AD1AB34102DB0020014670BDF8
:1008E000201841EB025170BD2DE9F04D00231A464E
:1008F0001B1A8A4103DB00200146BDE8F08DC1F3DD
:100900000A52C1F3130141F480154FF0000BD107D7
:1009100002D100186D41521E0027044640F2FF111B
:10092000384601EB620A3E468046024600204FF4FC
:100930008011FFF7F7FBC2197141BB1846EB0100AC
:10094000B4EB030C75EB000C04D3E41A65EB000563
:1009500017460E46241908F101006D4180463428DF
:10096000E3DDF91946EB0600091BA84103D24FF05D
:10097000FF32134601E0002213461BEB070046EB53
:100980000A51BDE8F04DFFF73BBFC1F30A52C1F376
:10099000130140F2FF3341F480119A4202DA002041
:1009A0000146704740F233439A42A2F2334202DCDE
:1009B0005242FFF7B7BBFFF7CBBE000030B5041EB5
:1009C00071F1000404DB4FF00044404264EB01018C
:1009D000141E73F1000405DB1C464FF00043524225
:1009E00063EB0403994208BF904230BD064C074DAB
:1009F00006E0E06840F0010394E8070098471034EF
:100A0000AC42F6D3FFF776FBD83E0008F83E00086C
:100A1000FEE7704772B6FEE72DE9F74F8CB00E4641
:100A200005464FF0FF310E98FFF766FCDFF868943B
:100A300000904C46D9F80810D9F80000FFF7ECFBFD
:100A4000E16807466068FFF7E7FB3946FFF7DEFB22
:100A50000121FFF751FC0890E168A068FFF7DCFB7B
:100A6000616807462068FFF7D7FB3946FFF77CFB34
:100A70000121FFF741FC0990A168A068FFF7CCFBBA
:100A8000616807466068FFF7C7FB3946FFF76CFBF4
:100A90000121FFF731FC4FF07E5B5946FFF7B9FBB0
:100AA0000A90FE4FB7F90400FFF7BAFD0146FFF7C1
:100AB000B3FB8046B7F90200FFF7B2FD0146FFF72E
:100AC000ABFB0446B7F90000FFF7AAFD0146FFF7AC
:100AD000A3FB2146FFF748FB4146FFF745FBFFF725
:100AE000C1FD03F043F902460B460020EC49FFF735
:100AF00028FDFFF7CAFDA9F10C040746A060B5F96F
:100B00000000FFF78DFD3946FFF786FB0590B5F92C
:100B10000200FFF785FD3946FFF77EFB0690B5F929
:100B20000400FFF77DFD3946FFF776FB0790099932
:100B30000798FFF771FB0A9907460698FFF76CFBC9
:100B40003946FFF763FB03900A990598FFF764FBAA
:100B5000089907460798FFF75FFB3946FFF756FBF2
:100B6000049008990698FFF757FB099907460598DE
:100B7000FFF752FB3946FFF749FB05900398616880
:100B80008846FFF749FBC74F3968FFF7EDFA386031
:100B900004984146FFF740FB7968FFF7E5FA786073
:100BA00005984146FFF738FBB968FFF7DDFAB860F2
:100BB000039920688246FFF72FFB8046B5F90600AF
:100BC000FFF72EFDB84C2146FFF726FB4146FFF705
:100BD000CBFA3968FFF7C8FA019004995046FFF73D
:100BE0001BFB8046B5F90800FFF71AFD2146FFF709
:100BF00013FB4146FFF7B8FA7968FFF7B5FA0290A0
:100C000005995046FFF708FB8046B5F90A00FFF743
:100C100007FD2146FFF700FB4146FFF7A5FAB9683B
:100C2000FFF7A2FA039003994C46D9F80C00FFF79E
:100C3000F3FA02998046A068FFF7EEFA074660686B
:100C4000019980F00040FFF7E7FA3946FFF7DEFA36
:100C50004146FFF7DBFA0099FFF7DEFA0399824677
:100C6000A068FFF7D9FA02998046E068FFF7D4FA46
:100C7000019907462068FFF7CFFA3946FFF7C6FA11
:100C80004146FFF771FA0099FFF7C6FA03998146CA
:100C90006068FFF7C1FA029907462068FFF7BCFABF
:100CA00001998046E068FFF7B7FA4146FFF75CFA22
:100CB0003946FFF7ABFA0099FFF7AEFA0399804681
:100CC0002068FFF7A9FA01990390A068FFF7A4FA3A
:100CD000029907466068FFF79FFA3946FFF796FAD0
:100CE0000399FFF741FA0099FFF796FA0746206843
:100CF0005146FFF739FA206060684946FFF734FA39
:100D00006060A0684146FFF72FFAA060E0683946AE
:100D1000FFF72AFAE060E168E068FFF77DFAA16872
:100D20008146A068FFF778FA616880466068FFF73F
:100D300073FA216807462068FFF76EFA3946FFF715
:100D400013FA4146FFF710FA4946FFF70DFAFFF78D
:100D500089FC03F00BF802460B4600205049FFF7D0
:100D6000F0FBFFF792FC074620683946FFF754FA7C
:100D7000206060683946FFF74FFA6060A068394626
:100D8000FFF74AFAA060E0683946FFF745FAE060ED
:100D9000B5F90A00FFF744FC4449FFF73DFA5D4608
:100DA000A84202DC10F1814F0DD90E99FFF734FAF9
:100DB000B168FFF7D9F9B060FFF754FC02460B4663
:100DC0003BA001F071FF60680121FFF795FAE1682F
:100DD000FFF722FA074620680121FFF78DFAA16884
:100DE000FFF71AFA3946FFF711FAFFF73BFC02F05A
:100DF00067FCDFF8C8A04FF000594A465346FFF79A
:100E00002EFBFFF742FC7060A0680121FFF774FA27
:100E1000A168FFF701FA074660680121FFF76CFA45
:100E20006168FFF7F9F92946FFF7F3F93946FFF74B
:100E3000EDF9FFF717FC054620680F460121FFF783
:100E40005BFA6168FFF7E8F98046A0680121FFF7C7
:100E500053FAE168FFF7E0F94146FFF785F9FFF73C
:100E600001FC2A463B4602F073FE4A465346FFF712
:100E7000F6FAFFF70AFC30607068FFF7F3FB0246F2
:100E80000B460FA001F010FF3068FFF7EBFB0246A6
:100E90000B460EA00FB01FE05C0000208001002078
:100EA0000000F03F980100202E9E8B3AF6FF793D1E
:100EB0005961773A25660D0A00000000DCA54C4018
:100EC00050697463683A256609000000526F6C6CC3
:100ED0003A25663B0D0A0000BDE8F04F01F0E4BE84
:100EE00070B5044600F0FEF80546601C02D00448C8
:100EF0000078044400F0F6F8401BA042FAD370BD1D
:100F00006C0000202DE9F84FDFF8B8910024A9F11A
:100F1000040B23460F2709F1040AABF1040EC9E0C4
:100F20000125A5402A40AA427DD1674ED1F804C0D0
:100F3000ACEB0608B44532D014DCBCF1030F3AD058
:100F400009DCBCF1000F2AD0BCF1010F1CD0BCF1B0
:100F5000020F31D11DE0BCF1110F17D0BCF1120FFF
:100F60002AD119E0B8F5881F19D006DCB8F5803F02
:100F700015D0B8F5801F1FD111E0B8F5001F0ED0B5
:100F8000B8F5041F18D10AE0CB6815E0CB681B1D2B
:100F900012E0CB6808330FE0CB680C330CE08B68B1
:100FA0002BB1012B4FF0080303D0456104E004236B
:100FB00002E0056100E00023FF2A01D8064601E0B7
:100FC00000F104064FEA840501D9A5F12005D6F801
:100FD000008007FA05FC28EA0C0803FA05F548EA40
:100FE0000508C6F800804D68ED0062D5374DAE6942
:100FF00046F00106AE61AD6924F0030605F0010577
:101000000095334D06EB050CDCF80850A607360FAB
:1010100007FA06F825EA0805DFF8B880404503D14D
:101020004FF0000817E044E0DFF8AC80404502D103
:101030004FF001080FE0DFF8A480404502D14FF0E7
:10104000020808E0DFF89880404502D14FF003081D
:1010500001E04FF0040808FA06F848EA0508CCF861
:1010600008804D68D9F80060ED024D4601D5164361
:1010700000E096432E604D68DAF80060AD025546F8
:1010800001D5164300E096432E604D68DBF8006002
:10109000AD035D4601D5164300E096432E604D68D2
:1010A000DEF80060ED03754601D5164300E0964377
:1010B0002E60641C0D682A46E5407FF431AFBDE820
:1010C000F88F0000080401400000111000100240D9
:1010D0000000014000080140000C014000100140E8
:1010E0000014014001488068704700006C00002037
:1010F00070B5040025D094F83D00002520B984F88F
:101100003C50204600F078FA242084F83D00206806
:10111000016821F0010101602068016841F400418B
:1011200001602068016821F40041016000F0C0FB0B
:101130004D4A6168914201D84C4900E04C498842CF
:1011400001D2012070BD4B492368B0FBF1F15E680C
:1011500026F03F060E435E606368934206D94FF463
:10116000967359434FF47A73B1FBF3F12368491C2A
:101170001E6A26F03F06314319626168914210D819
:101180004900401EB0FBF1F2521CC2F30B02042ACC
:1011900001D2042022E0B0FBF1F0401CC0F30B00B0
:1011A0001CE0A268F2B301EBC10303EB0116431E7E
:1011B000B3FBF6F35B1C43F480431B0549D092B3A9
:1011C00001EBC10202EB0111401EB0FBF1F0401C2B
:1011D000C0F30B0040F4804040F400402168CA692D
:1011E0004CF6FF739A431043C861D4E907100143DA
:1011F0002068026822F0C00211430160D4E90301B3
:1012000001432068826848F2FF339A4311438160AA
:10121000D4E9050108432168CA6822F0FF0210439F
:10122000C86001E00EE016E02068016841F00101AD
:1012300001602564202084F83D00256384F83E5039
:10124000002070BD01EB4106431EB3FBF6F35B1CAF
:10125000B3E70120C2E701EB4101401EB0FBF1F012
:10126000401CC0F30B00B7E7A086010080841E007D
:1012700000093D0040420F002DE9FF4F83B00025DB
:10128000DDE910799A4693460446DDF848800095DA
:10129000FFF728FF064694F83D0020287CD119234B
:1012A000012285492046009601F0A6F80028F5D1D4
:1012B00094F83C0001286FD0012084F83C0020689D
:1012C0000168C90703D1016841F00101016020688C
:1012D000016821F400610160222084F83D00402073
:1012E00084F83E0025646762A4F82A90608D20850A
:1012F0007248E062CDE9008653465A46204604997A
:1013000000F07CFF00287DD1208DDFF8B4912027EC
:1013100068B1012814D00228206801681ED041F469
:10132000806101602068416980690090B6E02068B2
:10133000416981690091016841F400710160ADE08B
:101340002068016821F48061016072B620684169FB
:1013500081690091016841F400710AE041F4006183
:10136000016072B62068416981690091016821F4C9
:101370008061016062B691E0032868D801280CD032
:10138000022843464FF000024946204600960FD0FF
:1013900001F032F8B0BB10E08BE032464146204607
:1013A00001F0D0F870BB20680069616A08706CE0D9
:1013B00001F022F830BB72B634E02068016821F4F5
:1013C0008061016072B620680069616A0870606AB5
:1013D000401C6062208D401E2085608D401E60850F
:1013E000384846F2A8110068B0FBF1F0C0EBC0002D
:1013F00000EB80000090401E009008D020684069FB
:10140000C04300E029E040070CD50098F3E744F81A
:10141000305F6773A573206940F02000206162B6D9
:1014200025731AE02068016841F4007101602068AA
:101430000069616A0870606A401C6062218D491E03
:101440002185618D491E618562B621681BE03246A7
:101450004146204601F076F818B1012007B0BDE8FA
:10146000F08F20680069616A0870606A401C6062E1
:10147000218D491E2185618D491E618521684A693A
:10148000D24352070AD409690170606A401C606245
:10149000208D401E2085608D401E6085208D002897
:1014A0007FF46AAF84F83D7084F83E5084F83C5075
:1014B000D4E70220D2E70000020010000000FFFF86
:1014C00004000100780000202DE9FF4F83B09A4608
:1014D000DDE9119793460446DDF84080FFF702FEF0
:1014E000054694F83D0020287FD119230122404968
:1014F0002046009500F080FF002876D194F83C004B
:10150000012872D0012084F83C0020680168C907D6
:1015100003D1016841F0010101602068016821F4F4
:1015200000610160212084F83D00402084F83E00E5
:1015300000262664C4F82480A4F82A90608D2085B3
:101540002C48E062CDE9007553465A46204604997E
:1015500000F0D2FE70B930E02A463946204601F04C
:1015600029F858B1206C042804D12068016841F49E
:1015700000710160012007B0BDE8F08F606A21684A
:1015800000780861606A401C6062218D491E89B242
:101590002185628D521E628522685369DB435B0799
:1015A0000BD469B100781061606A401C6062208DC4
:1015B000401E2085608D401E6085208D0028CBD187
:1015C0002A463946204600F0EBFE0028CAD154F8DE
:1015D0003D0B016841F400710160202004F81E09F0
:1015E000E67766770020C6E7FFE70220C3E7000042
:1015F000020010000000FFFF10B586B0002100912E
:1016000001910291039100680F4988421AD10F4C51
:10161000A06940F00800A061A069694600F00800D8
:101620000490C020009012200190032003900848ED
:10163000FFF768FCE06940F40010E061E06900F445
:101640000010049006B010BD00540040001002408D
:10165000000C0140024881680278114481607047A3
:101660006C000020074810B5016841F010010160CE
:10167000032000F075F80F2000F006F800F024F8C1
:10168000002010BD0020024070B50D4D04464FF4FF
:101690007A712878B1FBF0F00A490968B1FBF0F0E3
:1016A00000F0DCFA48B9102C07D200222146501E67
:1016B00000F036F800206C6070BD012070BD0000A5
:1016C0006C000020780000200C4808B5816941F0CA
:1016D00001018161816901F001010091C16941F05D
:1016E0008051C161C06900F0805000900448416899
:1016F00021F0E06141F00071416008BD001002403E
:1017000000000140002809DB00F01F020121914088
:101710004009800000F1E020C0F80011704700008F
:10172000F0B40E4B1B680C46C3F30223C3F107054C
:10173000042D00D90425191D072901D2002300E03A
:10174000DB1E012606FA05F1491E214099409E4004
:10175000761E16403143F0BC01F0CABA0CED00E031
:10176000064900F0070208684FF6FF03184040EAF8
:101770000220034A10430860704700000CED00E0AF
:101780000000FA052DE9F0470F46050061D0434EF1
:10179000306800F00700B84209D2306820F0070036
:1017A00038433060306800F00700B84251D12868F3
:1017B0003B4C810712D5400703D5606840F4E060D8
:1017C00060602878000703D5606840F4605060606E
:1017D0006068A96820F0F000084360602878C007BE
:1017E00028D06868012810D02168022810D0890705
:1017F00000292EDA616821F0030101436160FFF7DF
:1018000071FC804641F288390DE021688903EFE7D9
:101810008901EDE7FFF766FCA0EB0801494502D915
:101820000320BDE8F0876068696800F00C00B0EB49
:10183000810FEFD1306800F00700B8420BD9306853
:1018400020F0070038433060306800F00700B842ED
:1018500001D00120E5E72878400705D56068E968F0
:1018600020F4E060084360602878000706D56068CF
:10187000296920F4605040EAC100606000F038F847
:101880006168084AC1F30311515CC8400649086009
:1018900006480068FFF7F8FE0020C2E7002002407B
:1018A00000100240CA3D00087800002070000020AF
:1018B0000448054900684968044AC1F30221515CA3
:1018C000C84070477800002000100240DA3D000850
:1018D0000448054900684968044AC1F3C221515CC3
:1018E000C84070477800002000100240DA3D000830
:1018F0000E4A51680E4801F00C03042B11D0082B3E
:101900000FD10C48C1F38343C903C05C0AD55168A9
:10191000084AC1F34041921E515C054A5043B0FB56
:10192000F1F070470449484370470000001002403E
:1019300000127A00BA3D000800093D002DE9F84F79
:10194000040070D02078C04DC00749D06868C0F34B
:101950008100012807D06868C0F38100022809D1FE
:101960006868C00306D52868800339D560680028F8
:10197000E7D035E06068B0F5803F0BD010B1B0F52E
:10198000A02F11D0286820F480302860286820F427
:10199000802002E0286840F480302860606890B1C0
:1019A000FFF7A0FB06460AE0286840F48020286084
:1019B000F0E700BFFFF796FB801B642873D8286808
:1019C0008003F7D50CE0FFF78DFB064605E000BF6E
:1019D000FFF788FB801B6428F0D828688003F7D4C1
:1019E00020789A4E80074FF001094FF0000839D552
:1019F000686810F00C0F07D06868C0F381000228F7
:101A000009D16868C00306D42868800714D5206906
:101A1000012808D110E02069B0B1C6F80090FFF7A6
:101A200061FB074605E00AE1FFF75CFBC01B0228EB
:101A3000C4D828688007F7D52868616920F0F800C5
:101A400040EAC10028600DE0C6F80080FFF74AFBBD
:101A5000074604E0FFF746FBC01B022823D828688E
:101A60008007F7D4207800072CD57948A169D9B12F
:101A7000C0F80090FFF736FB074604E0FFF732FBA3
:101A8000C01B02280FD8686A8007F7D571484FF449
:101A9000FA510068B0FBF1F0009000BF0098411EC1
:101AA0000091FAD20EE080E0C0F80080FFF71AFB48
:101AB000074604E0FFF716FBC01B022875D8686ACA
:101AC0008007F7D42078400760D5E8690027C00078
:101AD00008D4E86940F08050E861E869012700F027
:101AE000805000905C480168C90513D401688346A2
:101AF00041F480710160FFF7F5FA824606E000BF0D
:101B0000FFF7F0FAA0EB0A0064284ED8DBF80000DB
:101B1000C005F5D5E06801280AD008B1052813D022
:101B2000286A20F001002862286A20F0040002E000
:101B3000286A40F001002862E06841F2883B98B1D1
:101B4000FFF7D0FA82460BE0286A40F004002862D2
:101B5000EEE700BFFFF7C6FAA0EB0A0159455AD8D5
:101B6000286A8007F6D50CE0FFF7BCFA824605E04C
:101B7000FFF7B8FAA0EB0A0159454CD8286A80074C
:101B8000F6D41FB1E86920F08050E861E06988B3BD
:101B90006968C1F38101022944D00228C6F8608037
:101BA00004D0FFF79FFA044638E034E0FFF79AFAD2
:101BB000074604E0FFF796FAC01B02282BD82868D6
:101BC0008001F7D4206AB0F5803F05D16868A1682C
:101BD00020F4003008436860D4E9080108436968CC
:101BE00021F4741108436860C6F86090FFF77AFA30
:101BF000044606E025E000BFFFF774FA001B022848
:101C000009D828688001F7D51BE000BFFFF76AFA02
:101C1000001B022802D90320BDE8F88F2868800144
:101C2000F4D40EE00128F7D06868226A00F480310D
:101C3000914204D1616A00F47010884201D0012001
:101C4000EAE70020E8E700000010024000004242FE
:101C500080044242780000200070004010B5401E11
:101C6000B0F1807F01D3012010BD4FF0E02460610E
:101C70000F21601701F03CF80020A06107202061CF
:101C8000002010BD7047704770B590F83C20012AC5
:101C900026D0012480F83C40022280F83D200368D1
:101CA0005A689D6822F070060A6832435A600D4BEC
:101CB00002689A4208D0B2F1804F05D00A4B9A428E
:101CC00002D00A4B9A4204D1496825F08003194397
:101CD000916080F83D40002180F83C10084670BDBE
:101CE000022070BD002C01400004004000080040AC
:101CF00010B5040003D094F83D0010B107E00120B6
:101D000010BD002084F83C00204600F01FF802209F
:101D100084F83D00211D206800F0C0FE012084F8F9
:101D2000460084F83E0084F83F0084F8400084F8C0
:101D3000410084F8420084F8430084F8440084F8A9
:101D4000450084F83D00002010BD000008B5006883
:101D50000B49884212D10B48816941F400618161CD
:101D60008069002200F40060009011461920FFF7FE
:101D7000D7FCBDE808401920FFF7C4BC08BD00002F
:101D8000002C01400010024090F83D10012901D0C4
:101D900001207047022180F83D100168CA6842F0B6
:101DA0000102CA6000680B49884208D0B0F1804F38
:101DB00005D00949884202D00849884204D1816887
:101DC00001F00701062903D0016841F0010101601B
:101DD00000207047002C0140000400400008004033
:101DE00070B5044690F83C000025012817D0012664
:101DF00084F83C60022084F83D002068826822F06C
:101E0000770222F47F4282600868502838D00DDCC7
:101E100020284FD005DC90B3102811D14AE00220D1
:101E200070BD302846D040280AD13BE060282FD032
:101E300070280DD0B0F5805F03D0B0F5005F12D0F0
:101E4000012584F83D60002084F83C00284670BDE0
:101E5000CB68D1E90121206800F056FE2068816836
:101E600041F0770109E0CB68D1E90121206800F059
:101E70004BFE2068816841F480418160E1E719E010
:101E8000CA684968206800F051FE5021206806E0C9
:101E9000CA684968206800F05AFE6021206800F096
:101EA0003DFECEE7CA684968206800F03FFE402149
:101EB0002068F4E7226801461046F0E7704770B5E5
:101EC0000446006801694FF00005C943890715D42D
:101ED000C168C943890711D4E91E01610120207737
:101EE000206880698007204602D0FFF7E7FF04E002
:101EF00000F098F8204600F096F8257720680169F0
:101F0000C943490717D4C168C943490713D46FF0BF
:101F100004010161022020772068806910F4407F6D
:101F2000204602D0FFF7CAFF04E000F07BF820460D
:101F300000F079F8257720680169C943090716D4AC
:101F4000C168C943090712D46FF008010161042078
:101F500020772068C0698007204602D0FFF7AEFFD7
:101F600004E000F05FF8204600F05DF82577206877
:101F70000169C943C90617D4C168C943C90613D446
:101F80006FF010010161082020772068C06910F40B
:101F9000407F204602D0FFF791FF04E000F042F8B6
:101FA000204600F040F8257720680169C943C90739
:101FB00008D1C168C943C90704D1891E01612046FF
:101FC00000F032F820680169C943090609D4C168E4
:101FD000C943090605D46FF0800101612046FFF76F
:101FE00051FE20680169C943490609D4C168C94343
:101FF000490605D46FF040010161204600F02CF83D
:1020000020680169C94389060BD4C168C9438906A0
:1020100007D46FF0200101612046BDE87040FFF752
:1020200032BE70BD70477047074910B588420AD16B
:1020300000F034FC054A06490648FEF7EDFCBDE811
:10204000104000F0A3BC10BDD8000020A69B443B6C
:102050008C01002080010020704770B5040004D07E
:1020600094F84100002510B106E0012070BD84F80D
:102070004050204600F024F8242084F841002068D5
:10208000C16821F40051C160204600F073FD206852
:10209000016921F4904101612068416921F02A0120
:1020A00041612068C16841F40051C160656420202D
:1020B00084F8410084F842006563002070BD000090
:1020C00030B585B000240094019402940394006814
:1020D0001449884223D11448C16941F40031C161D7
:1020E000C16901F400310491816941F00401816109
:1020F00080690E4D00F0040004900420009002203E
:1021000001900320039069462846FEF7FBFE082055
:10211000CDE90004694628460294FEF7F3FE05B0B7
:1021200030BD0000004400400010024000080140A3
:102130002DE9F843044690F841001F4616460D4627
:10214000202802D00220BDE8F8837DB176B10020BE
:102150006064212084F84100FEF7C4FFA684804615
:10216000E684A068B0F5805F02D003E00120EAE7D2
:10217000206910B12E4600250EE000260CE08021DB
:10218000204600F053FDA0B9AEB116F8010B21684E
:102190004860E08C401EE084E08C43464FF0000233
:1021A00000970028EBD14FF04001204600F03EFDA3
:1021B00030B10320C7E735F8020BC0F30800E6E7AB
:1021C000202084F841000020BDE7FEE701684A694D
:1021D000D24352050FD46FF480624A61002140F867
:1021E000301F202242738173026942F004020261AF
:1021F0000173012070470020704700002DE9F84F5F
:102200000446006889460B9D01689846174641F4CC
:10221000806101602068016841F48071016000956F
:102220004FF0011B0022594620460A9B00F0E4F8BB
:102230004FF4007A40B120680068C00501D5C4F8A9
:1022400040A00320BDE8F88F216809F0FE00086176
:102250002B46284920460A9A00F016F9F0BB206860
:102260004169806900902A4620460A9900F0A2F947
:1022700040B1206C04283AD12068016841F4007113
:10228000016034E0FEB2B8F1010F09D02168380ACC
:1022900008612A4620460A9900F08CF90028E8D106
:1022A000206806612A4620460A9900F083F9002832
:1022B000DFD12068016841F480710160009500223F
:1022C000594620460A9B00F097F80028B3D12168B0
:1022D00009F0FF0040F00100086100E007E02B4634
:1022E000044920460A9A00F0CFF80028AAD001201D
:1022F000A8E70000020001002DE9F8430446006849
:102300000D46DDE9089701689846164641F480714C
:1023100001604B4600224FF001112046009700F06B
:102320006BF848B120680068C00502D54FF4007012
:1023300020640320BDE8F883216805F0FE000861F1
:102340003B464A461549204600F09EF888B9206869
:102350004169806900903A464946204600F02AF9D2
:1023600048B1206C042804D12068016841F4007150
:1023700001600120DEE7F5B2B8F1010F09D0216854
:10238000300A08613A464946204600F013F9002811
:10239000E7D1206805610020CCE7000002000100C1
:1023A00070B516460D4604461EE02046FFF70EFFA8
:1023B00008B1012070BD681C16D0FEF793FE801B8B
:1023C000A84200D885B920684069C04340070BD5B2
:1023D000002044F8300F20216173A073216941F07F
:1023E000200121612073E4E720684069C043400771
:1023F000DBD4002070BD00002DE9F0479846174659
:102400000D460446C1F30746DDF820902AE000BFE0
:10241000B8F1FF3F26D0FEF765FEA0EB090141456C
:1024200002D8B8F1000F1DD12068012E16D08069A6
:1024300025EA00000004000C12D00020B84211D19F
:10244000002044F8300F20216173A073216941F00E
:102450002001216120730120BDE8F0874069E7E792
:102460000120EBE72068012E0AD0806925EA0000F0
:102470000004000C06D00020B842C9D00020EBE7D1
:102480004069F3E70120F7E72DE9F0479846164643
:102490000D4604464FF000094FF0200AC1F30747EC
:1024A00023E020684069C043400515D420680168D6
:1024B00041F40071016021686FF480604861C4F8E4
:1024C000309084F83DA084F83E90216C41F00401E6
:1024D000216484F83C9021E0701C06D0FEF702FED7
:1024E000A0EB0800B04203D816B1012F1FD021E0A5
:1024F0002068012F15D0806925EA00000004000C37
:1025000018D000BF44F8309F84F80DA084F80E90D6
:10251000216941F02001216184F80C900120BDE87F
:10252000F087406925EA00000004000CEAD1206829
:10253000406901E02068806925EA00000004000C81
:10254000AFD1ECE72DE9F041002590460E46044658
:10255000202728E04069C043C0060CD454F8301B43
:102560006FF01000486144F810596777A577206A2A
:102570002062257714E0FEF7B5FDA0EB0800B0421D
:1025800000D886B920684069C04340060BD544F89E
:10259000305F6773A573206940F0200020612573C8
:1025A0000120BDE8F08120684169C9434906D1D4C2
:1025B0000020F6E770B516460D4604461EE020469C
:1025C000FFF704FE08B1012070BD681C16D0FEF7AD
:1025D00089FD801BA84200D885B920684069C043A6
:1025E00000060BD5002044F8300F20216173A07342
:1025F000216941F0200121612073E4E720684069EE
:10260000C0430006DBD4002070BD000010B51E489A
:10261000FEF76EFD80216B2000F096F800216B2004
:1026200000F092F8032000F05AF8002000F052F871
:10263000322000F071F80021382000F085F80021E8
:102640006A2000F081F80021232000F07DF880212D
:10265000372000F079F8752000F022F80446014692
:102660000AA000F021FB682C01D0012010BD01213F
:102670006B2000F069F800216C2000F065F8322032
:1026800000F04AF8002010BD840000200D0A4D50D3
:1026900055363035303A30782532780D0A00000052
:1026A0001FB500218DF80C1040F6FF73012203A91D
:1026B0008DE80E0013460246D1210548FEF7DCFDE9
:1026C0006420FEF70DFC9DF80C0004B010BD000066
:1026D00084000020C006010E1C2000F035B8C006A2
:1026E000010E1B2000F030B8BC2801D3012110E0FE
:1026F000622801D302210CE02A2801D3032108E03B
:10270000142801D3042104E00A2801D3052100E0A4
:1027100006211A2000F018B810B504464FF47A705C
:10272000844201D9044602E0042C00D20424B0FB08
:10273000F4F0401EC1B2192000F006F86008BDE8B0
:102740001040FFF7D1BF00001FB540F6FF738DF8B2
:102750000C10012203A98DE80E0013460246D02179
:102760000448FEF7B1FE6420FEF7BAFB04B0002077
:1027700010BD0000840000200D4808B5816941F0BB
:1027800020018161816901F020010091816941F09E
:1027900004018161816901F004010091816941F0C6
:1027A00008018161806900F00800009008BD000008
:1027B000001002400D4810B50B4901600C49416002
:1027C00000214FF480428160C0E9031241618161C0
:1027D000C1610162FEF78CFC002803D0BDE8104007
:1027E000FEF718B910BD000000540040840000201E
:1027F000A086010010B586B000241848009401940A
:1028000002940394049414490594016040F2CF218A
:10281000C0E9011440F22B11C0E903148021C0E982
:102820000541FFF765FA08B1FEF7F4F84FF4805060
:10283000009069460948FFF7D3FA08B1FEF7EAF8B5
:10284000049404A905480594FFF71EFA002801D056
:10285000FEF7E0F806B010BD002C0140D8000020C3
:102860000C4810B50A4901604FF4E1314160002184
:1028700081600C22C160C0E904128161C161FFF76F
:10288000ECFB002803D0BDE81040FEF7C3B810BD34
:102890000044004020010020FEE700002DE9F04F39
:1028A00087B003AD40F6FF7406260095CDE90164BC
:1028B00001233B22D1212E48FEF7DEFCA81DCDE9E5
:1028C000000601234322D12102942948FEF7D4FCBB
:1028D000DFF8A0A0DFF8A0900024A8464D4638F805
:1028E000140041BA3AF81400091AD9F8000020F887
:1028F0001410032C13D230F91400FDF791FE014699
:102900001D4804EB4402001D00EBC200064601F026
:10291000EFF9B068FDF78DFE296821F81400022C4C
:102920001ED92F68E01EC6B2DFF850B037F9140088
:10293000FDF776FE5946FDF76FFCDFF838B0054627
:102940000BF10C0B0E495BF82600FDF765FC2946E0
:10295000FDF70AFC4BF82600FDF76BFE27F8140084
:10296000641CE4B2062CB9D307B0BDE8F08F0000B8
:102970008400002068010020000000209A99193E80
:102980009A99593FFEE770477047000070B5244D93
:10299000244E86B06C4631462868FDF73DFCFDF7B5
:1029A00048FEADF8040031466868FDF735FCFDF7D8
:1029B00040FEADF806003146A868FDF72DFCFDF796
:1029C00038FE4042ADF808000020ADF80A00ADF82E
:1029D0000C00154800780C250002ADF80E004AF6F0
:1029E000AA20ADF800004FF48670ADF80200542024
:1029F0008DF8100002202B1D0EE02618215C727845
:102A000051404A407270514021540A446119801C5F
:102A10000E79C0B232440A719842EED306B070BD4E
:102A20008C0100200000C8424C000020FEF712BEBE
:102A300030B58FB028216846FDF78BFB14210AA81A
:102A4000FDF787FB01210804CDE900100024029462
:102A500002250491CDE907504FF4E0100990684633
:102A6000FEF76CFF08B172B6FEE70F20CDE90A054C
:102A70004FF48060CDE90C4002210AA80E94FEF7C5
:102A800081FE002801D072B6FEE70FB030BD70475E
:102A90000148FFF714BA0000D8000020F0B5026822
:102AA000164B174C174D4FF08047984205D0B8424F
:102AB00003D0A04201D0A84203D122F070064A6898
:102AC0003243984205D0B84203D0A04201D0A84278
:102AD00003D122F44074CA6822434C6922F0800278
:102AE000224302608A68C2620A688262984201D107
:102AF0000969016301214161F0BD0000002C014022
:102B0000000400400008004010B5846842EA032237
:102B100024F47F440A432243826010BD826822F07D
:102B200070020A4342F007018160704710B5036AE2
:102B3000046A24F001040462846924F0F00444EA85
:102B4000021423F00A020A438461026210BD10B528
:102B5000036A046A24F010040462846923F0A00369
:102B600024F4704444EA023243EA011182610162B2
:102B700010BD000070B5044600680169E26821F4E8
:102B80004051114301612169A0680843616908430C
:102B90002168CA6841F20C639A430243CA60206804
:102BA0004169A26921F44071114341611E492068C5
:102BB000884202D1FEF78CFE01E0FEF779FE00EBC1
:102BC000C00101EB0012606864218000B2FBF0F3E9
:102BD000B3FBF1F36FF018067343B2FBF0F5B2FBF1
:102BE000F0F605EB8305322303EB0515B5FBF1F594
:102BF000B6FBF1F605F0F00505EB0615B2FBF0F6B5
:102C0000B2FBF0F0B0FBF1F06FF01802504306EBAE
:102C1000800003EB0010B0FBF1F0216800F00F0022
:102C20002844886070BD0000003801402DE9F04163
:102C3000984617460E460446069D27E0681C25D098
:102C40002DB1FEF74FFAA0EB0800A8421ED920686C
:102C50000C3050E8001F21F4D07140E80012002A27
:102C6000F5D12068143050E8001F21F0010140E840
:102C70000012002AF5D1202084F8410084F8420097
:102C8000002084F840000320BDE8F081206800683F
:102C900036EA000004D00020B842CFD00020F3E78D
:102CA0000120F9E7FEE700000FB4054B10B503A9BA
:102CB000044A029800F06CF910BC5DF814FB0000A7
:102CC000D13C00087C000020490050EAC12018BF18
:102CD00004204A0D18BF40F0010040F2FF72B2EB31
:102CE000515F08BF40F00200012808BF052070476F
:102CF0000907090E002804DB00F1E02080F8001429
:102D0000704700F00F0000F1E02080F8141D7047BC
:102D10002DE9F0414F1E00EBC7010446D1E9000147
:102D200015461E4637F006020DD02A463346FDF7FB
:102D300096FB7F1E04EBC703D3E90023FDF7E8FAF7
:102D400037F00602F1D1022F25D0042F13D0062F21
:102D500018BFBDE8F0812A463346FDF780FBD4E971
:102D60000A23FDF7D5FA2A463346FDF778FBD4E966
:102D70000823FDF7CDFA2A463346FDF770FBD4E968
:102D80000623FDF7C5FA2A463346FDF768FBD4E96A
:102D90000423FDF7BDFA2A463346FDF760FBD4E96C
:102DA0000223FDF7B5FA2A463346FDF758FBD4E96E
:102DB0000023BDE8F041FDF7ABBA0122FDF77DBD70
:102DC000FDF7A6BA0022134610461146FDF7B9BB1F
:102DD000024A00201107FDF770BD000001FDFFFF52
:102DE00002E008C8121F08C1002AFAD170477047D4
:102DF000002001E001C1121F002AFBD17047000032
:102E00000149086070470000800000202DE9FF5F45
:102E100082B00021DDE90430020DDDF840B003434B
:102E200018D044F61050A2F2FF3242431514119804
:102E300001281FD0A5EB0B00401C5FEA000A4FF0F1
:102E400000064E4FDFF83891B046504615D5CAF10E
:102E5000000413E0119801244AA3012801D16FEA6C
:102E60000B010298119AC0E90031C0E9024206B094
:102E7000BDE8F09FCBF10000DFE704460021404AA7
:102E8000491842EB0450CDE9001012E0E00707D0EA
:102E900032463B4640464946FDF7E1FA80468946C0
:102EA00032463B4610461946FDF7D9FA06460F460C
:102EB0006410002CEAD1DDE90401DDE90023BAF158
:102EC000000F06DAFDF7CBFA42464B46FDF7C7FA8C
:102ED00005E0FDF736FB42464B46FDF732FB044664
:102EE0000E460022284BFDF769FD03D84FF0FF3056
:102EF000014607E00022254B20463146FDF708FA3F
:102F0000FDF743FD102409E0002C0ADB0A22002310
:102F1000FDF7EDFB039B30321A55641E50EA0102A7
:102F2000F2D1641C039AC4F111031444119A012ACA
:102F300003D0012208430DD10AE0084304D0002049
:102F40004FF0110B119072E7A3EB0B056D1E0DE016
:102F50005B4504DD4FF0000205F1010504E003DAF2
:102F60004FF00002A5F10105002AECD0029811995A
:102F7000C0E90231C0E9004579E7000000001440D3
:102F80000000F03F300000000000F0430000E03F90
:102F90002DE9FF4F95B09B468946064600250FE276
:102FA000252877D100242746F84A0121059400E01E
:102FB000044316F8013F203B01FA03F01042F7D119
:102FC00030782A2811D06FF02F033078A0F130022A
:102FD000092A16D8059A44F0020402EB820203EB98
:102FE00042021044761C0590EFE759F8042B059235
:102FF000002A03DA504244F40054059044F00204DD
:10300000761C30782E2816D116F8010F44F00404EF
:103010002A280DD06FF02F023078A0F13003092B51
:1030200009D807EB870302EB4303C718761CF3E7C5
:1030300059F8047B761C30786C280FD006DC4C28BD
:1030400017D068280DD06A2814D104E0742810D055
:103050007A280FD10DE044F400140AE044F48014FF
:1030600001E044F440147278824202D104F58014E5
:10307000761C761C307866280BD013DC582877D065
:1030800009DC002875D04528F6D04628F4D047281A
:103090001AD19DE118E0632835D0642879D06528DD
:1030A00012D195E1702873D008DC6728F1D0692827
:1030B0006FD06E280DD06F2806D1B5E073282CD0C4
:1030C000752875D0782874D05A46179990476D1C8A
:1030D00075E1C4F30250022809D003280DD0D9F8B5
:1030E000001004280DD00D6009F1040967E1D9F83A
:1030F0000010EA17C1E90052F6E7D9F800100D8078
:10310000F2E70D70F0E719F8041B8DF800100020AD
:103110008DF80100EA46012003E059F804AB4FF0B6
:10312000FF3061074FF0000102D40DE008F101010A
:103130008846B9420FDA8045F8DB1AF808100029F2
:10314000F4D108E008F1010188468142FADB1AF85F
:1031500008100029F6D105985B46A0EB0807214628
:103160003846179A00F094FA284400EB080507E067
:103170004DE029E10DE01AF8010B5A4617999047E6
:10318000B8F10108F7D25B4621463846179A13E199
:1031900042E00A220092C4F302524FF0000A022ACF
:1031A00008D059F804CB032A4FEAEC710AD00DE09D
:1031B00029E02AE009F1070121F00702F2E802C143
:1031C000914609E00FFA8CFC4FEAEC71042A03D116
:1031D0004FFA8CFC4FEAEC71002907DA0A4600210D
:1031E000DCF1000C61EB02012D2202E0220504D586
:1031F0002B228DF80420012203E0E20701D02022D7
:10320000F7E7904659E00A2102E010220DE0102174
:103210004FF0000A00910BE010224FF0000A44F03A
:1032200004040827009203E008224FF0000A0092ED
:10323000C4F30252022A05D059F804CB0021032A14
:1032400008D009E009F1070121F00702F2E802C104
:10325000914605E01FFA8CFC042A01D10CF0FF0C0A
:103260004FF00008220728D5702806D0009B83F075
:10327000100353EA0A0305D00EE040228DF8042023
:10328000012208E05CEA010206D030228DF8042019
:103290008DF8050002229046009B83F0080353EA54
:1032A0000A030AD15CEA010201D1620705D5302286
:1032B0008DF804204FF001087F1E582804D034A058
:1032C00003900EA802900DE036A0F9E75346604641
:1032D000009AFDF70CFA84460398825C0298401E1F
:1032E000029002705CEA0100F0D1029806A9081A67
:1032F00000F1200A600702D524F4803400E00127A1
:10330000574502DDA7EB0A0000E0002000EB0A01B0
:10331000009005984144401A0590E00306D45B46AE
:103320002146179A059800F0B3F90544002706E0F6
:1033300001A85A46C05D179990476D1C7F1C4745F0
:10334000F6DBE0030CD55B462146179A059800F0A2
:103350009FF9054404E030205A46179990476D1CA8
:103360000099481E00900029F5DC08E002980299B7
:103370005A460078491C0291179990476D1CBAF182
:103380000001AAF1010AF1DC65E100000928010051
:1033900030313233343536373839616263646566CB
:1033A000000000003031323334353637383941428D
:1033B000434445460000000000F058F90544761CDF
:1033C000307800287FF4ECAD19B02846BDE8F08FC6
:1033D000620700D4062709F1070222F0070CFCE877
:1033E0000223E14603F000485FEA080C02D00FF226
:1033F000702C0DE05FEA045C02D50FF2682C07E048
:103400005FEAC47C02D00FF2602C01E0AFF2700CD6
:103410004FF0FF3823F00043CDF850C065280CD0A2
:1034200006DC452809D046281DD047283DD13DE07F
:10343000662818D067287ED138E00021112F01DBE3
:10344000112000E0781CCDE9000106A90EA8FFF7C5
:10345000DDFCDDE90F010E9A03910021009207F1D6
:10346000010A04914DE04FF000400097CDE90110B2
:1034700006A90EA8FFF7CAFCDDE90F0203920E9B16
:1034800011990022DDF80CA00093049211B9791C67
:1034900000EB010AB7EB0A0004D4C0F1FF3007F1DA
:1034A000010A0490AAEB0700019044E0012F00DA22
:1034B00001270021112F01DD112000E03846CDE960
:1034C000000106A90EA8FFF7A1FCDDE90F010E9A85
:1034D0000391002104910092BA4621070CD403996C
:1034E000514500DA8A46BAF1010F05DD009AAAF1CA
:1034F0000101515C302908D0B84202DA10F1040F02
:1035000006DA0121CDE9011015E0AAF10101E9E790
:10351000002805DC049901440491AAEB000102E0B3
:10352000411C514500DD8A460499401A401C019017
:103530004FF000400290200704D40198504501DB71
:10354000CDF8048000208DF84F0002980DF14F0750
:10355000B0F1004F25D02B200E9002984FF00208BA
:1035600000280CDA404202902D200E9007E00A213C
:103570000298FDF7A6F83031029007F8011DB8F166
:103580000001A8F10108F2DC02980028EFD1791EB1
:103590000E980870307800F0200040F0450007F8E1
:1035A000020D12A8C01B00F107081498007800B1A2
:1035B000012000EB0A01019801EBE07105984144FC
:1035C000401A401E0590E00306D45B462146179A38
:1035D000059800F05DF805441498007818B15A4633
:1035E000179990476D1CE00324D55B462146179A36
:1035F000059800F04DF805441CE00498002807DB0E
:10360000DDE90301884203DD0098405C179901E081
:10361000179930205A469047049805F10105401C3F
:1036200004900198401E019004D12E205A4617990B
:1036300090476D1CBAF10001AAF1010ADDDC05E03A
:1036400017F8010B5A46179990476D1CB8F1000105
:10365000A8F10108F4DC5B462146179A0598ABE611
:103660002D0000002B000000200000002DE9F0419B
:10367000044600251E461746880404D405E0394652
:103680002020B0476D1C641EF9D52846BDE8F081A6
:103690002DE9F041044600251E469046C80301D599
:1036A000302700E02027880404D505E0414638464D
:1036B000B0476D1C641EF9D52846BDE8F0810000B6
:1036C0002DE9F04D8D4F21F0004A86B005460C469D
:1036D000BA452ADBAAEB070028430AD0884882456E
:1036E00001DC1AD1CDB106B02846BDE8F04DFFF798
:1036F00064BB844A844B2846FCF7B1FE07460E465D
:10370000824A834B28462146FCF7A9FE06B03A467A
:103710003346BDE8F04DFCF7FBBD0120FFF770FB21
:1037200006B0BDE8F04DFFF74DBB7A48824542DA5E
:10373000BAF1795F0BDA2846FFF7C6FA042808BF0A
:10374000FFF746FB284606B02146BDE8F08D2A4625
:103750000B461046FCF783FE834602466E480E4633
:103760000B4606217844FFF7D3FA5A463346FCF756
:1037700076FE804669488A465A4633460421784494
:10378000FFF7C6FA5A463346FCF769FE00223B466D
:10379000FCF7BEFD02460B4640465146FCF7D1FE03
:1037A0002A462346FCF75BFE06B02A462346BDE8C0
:1037B000F04DFCF7ADBD284624F0004100223D4607
:1037C0003B46FCF749FE4FF0FF32FDF776F8064620
:1037D000024653480F460B4606217844FFF798FAF5
:1037E00032463B46FCF73BFECDE900014D483246F0
:1037F0003B4604217844FFF78BFA32463B46FCF700
:103800002EFE00222B46FCF783FD834602913046B4
:10381000394600F0ABFA804643480D46504517DC68
:10382000DDE900015A46029BFCF78BFE42462B461F
:10383000FCF715FE42462B46FCF76AFD0122FDF718
:103840003CF8304A304BFCF704FE304A304B4CE039
:103850004FF0000A52460B464046FCF759FDCDE9B1
:10386000031052462B4610461946FCF7F8FD324627
:103870003B46FCF7F1FDDDE90332FCF762FE06464C
:103880000F46DDE900015A46029BFCF75AFE8346CB
:103890000091012230463946FDF70FF8194A1A4BBC
:1038A000FCF7DAFD06460F46012240462946FDF7A1
:1038B00004F85A46009BFCF7D2FD32463B46FCF723
:1038C000C8FD06460F46012250462946FCF7F5FF83
:1038D0000E4DDFF858802A464346FCF7BDFD3246C0
:1038E0003B46FCF7B9FD2A464346FCF7B5FD002CE4
:1038F000D8BF81F0004106B0BDE8F08D0000F03F78
:103900000000F07F075C143326A6913C182D445428
:10391000FB21F93F0000E03F800600009606000012
:103920000A060000200600003333EF3FFB21E93F89
:103930002DE9F84F04460D4621F0004000917349EF
:10394000814211DC7249884201DC06D12CB120464B
:103950002946BDE8F84FFFF730BA6E48002DCCBFBE
:103960006D496E49BDE8F88F6D49814211DD6D49A1
:103970008142D8BF4FF0FF366DDD20462946FFF764
:10398000A3F9042808BFFFF723FA20462946BDE81B
:10399000F88F6549654F25F00045814233DD644964
:1039A000814219DD002632464FF0804320462946E9
:1039B000FCF7AEFC80468A46012220462946FCF7E9
:1039C0007CFF00223B46FCF744FD42465346FCF791
:1039D000B8FD04460D463EE001260022BA463B46AD
:1039E00020462946FCF794FC80460F4600225346A9
:1039F00020462946FCF72DFD42463B46FCF7A1FD3B
:103A000004460D4627E04B4981421BDDDFF828A123
:103A100002260022534620462946FCF720FD0022BC
:103A20003B46FCF775FC80460F4600225346204675
:103A30002946FCF70EFD42463B46FCF782FD044654
:103A40000D4608E0032622462B4600203B49FCF7A2
:103A500078FD04460D4622462B4610461946FCF7D3
:103A6000FEFC8B46824602460B46FCF7F8FC0746F6
:103A70000246334888460B4606217844FFF748F94A
:103A800052465B46FCF7EBFC82462E488B463A4694
:103A9000434605217844FFF73BF93A464346FCF795
:103AA000DEFC02460B46002E504659460CDAFCF767
:103AB0002FFC22462B46FCF7D2FC01B022462B46B7
:103AC000BDE8F04FFCF7C8BCFCF722FC22462B46B1
:103AD000FCF7C5FC1C4A7A4402EBC603D3E9002379
:103AE000FCF7B7FC22462B46FCF7B3FC174A7A4496
:103AF00002EBC603D3E90023FCF7AEFC009A002AD0
:103B0000B8BF81F00041BDE8F88F0000000010440C
:103B10000000F07F182D4454FB21F93FFB21F9BF31
:103B20000000DC3F0000203E0000F33F0000F03FBB
:103B30000000E63F008003400000F83F0000F0BFB7
:103B400022040000E00300007E03000046030000A2
:103B50002DE9F04D9446CCF1000423F000464CEAE8
:103B60000404524F46EAD4749A46884621F0004233
:103B7000BC4206D8454240EA050442EAD474BC423D
:103B800004D9BDE8F04D6246FFF71AB9AAF14055D5
:103B9000A5F17F6555EA0C040BD0022404EAAA744F
:103BA000434DDFF810E144EAD87452EA000B04D028
:103BB0000CE0BDE8F04DFFF7BBBE002C14BF012C9C
:103BC000BDE8F08D022C30D0032C32D056EA0C0B1D
:103BD0000AD0BE4220D1BA4209D126F0804622F056
:103BE00080423346114617E000291ADB25E0DFF852
:103BF000C8B0FB44002C04BFDBE90001BDE8F08D38
:103C0000012C02BFDBE9000181F00041BDE8F08D2D
:103C1000022C0AD0032C0CD0BA4212D1B8F1000FFA
:103C20000BDA23482549BDE8F08D28462449BDE834
:103C3000F08D28467146BDE8F08D1D482149BDE84C
:103C4000F08D921B12153C2AC4BF19481D490EDC89
:103C5000BAF1000FBEBF12F13C0F0020014606DB97
:103C60006246FCF76EFC21F00041FFF761FE002C7C
:103C700008BFBDE8F08D012C04BF81F00041BDE814
:103C8000F08D114A114B022C07D0FCF7E2FB2A46BB
:103C9000BDE8F04D0A4BFCF7DCBBFCF7DAFB2A462B
:103CA000BDE8F04D064BFCF7D7BB00000000F07FED
:103CB000182D4454FB2109C0DA020000FB21F9BF92
:103CC000FB210940FB21F93F075C143326A6A13CE8
:103CD00038B504468DF800004FF6FF73012269469F
:103CE0000248FEF725FA204638BD000020010020DA
:103CF0002DE9F0418846044601690068FCF734FA72
:103D0000606005466169FCF72FFA01462846FCF71A
:103D1000B5FAE060A768064639464046FCF776FAF1
:103D20003146FCF779FA3946FCF71EFAA0603146B5
:103D30004FF07E50FCF76AFA2946FCF76DFA2060D6
:103D4000BDE8F081FDF78EFCFEF772FEFEF714FD74
:103D5000FEF730FDFEF74EFDFEF782FDFEF756FC46
:103D60000148FEF711F8FEE7D80000202DE9F041E8
:103D700006460F46FCF7B8FD041E0D4618BF01208D
:103D8000284320F00040C0F17F6000F1E040C00F08
:103D90000ED0301C18BF0120384320F00040C0F185
:103DA0007F6000F1E040C00F04BF0120FFF728F85A
:103DB00020462946BDE8F0810102020304050607FA
:103DC00008090A0B0C0D0E0F101000000000000077
:103DD00000000102030406070809000000000102B8
:103DE0000304000000000000555555555555C53FCA
:103DF0007D6FEB0312D6D4BF5544880E55C1C93F21
:103E00003B8F68B52882A4BF88B20175E0EF493FB7
:103E100009F7FD0DE13D023F4B2D8A1C273A03C0F7
:103E2000C88A599CE52A004059018D1B6C06E6BFE3
:103E300082922EB1C5B8B33F4FBB610567ACDD3F81
:103E4000182D4454FB21E93F9BF681D20B73EF3FC1
:103E5000182D4454FB21F93FE2652F227F2B7A3C39
:103E6000075C143326A6813CBDCBF07A8807703CF2
:103E7000075C143326A6913CC4EB98999999C9BF65
:103E8000711623FEC671BCBF6D9A74AFF2B0B3BF9A
:103E90009AFDDE522DDEADBF2F6C6A2C44B4A2BF5A
:103EA0000D5555555555D53FFF8300922449C23FC6
:103EB0006E204CC5CD45B73F513DD0A0660DB13FFA
:103EC000EB0D76244B7BA93F11DA22E33AAD903F0C
:103ED0000000000000000000F83E00080000002084
:103EE00084000000E02D00087C3F000884000020D2
:103EF00024050000F02D0008800100200AD7A33C13
:103F00000000000000000000000000006F12833A73
:103F10000C020B3F0AD7A33C000000000000000089
:103F2000000000006F12833A0C020B3F0AD7A33C3B
:103F30000000000000000000000000006F12833A43
:103F40000C020B3F000000000000003F17B7D13803
:103F5000000000000000803F0000000000000000A2
:103F60000000000001000000100000000000000040
:0C3F70000024F40000000000000000002D
:04000005080000ED02
:00000001FF
