:020000040800F2
:10000000D805002001010008F32800082921000874
:10001000F1280008A3090008E92B000800000000EF
:10002000000000000000000000000000F7280008A9
:10003000550A000800000000F5280008F92800080B
:100040001B0100081B0100081B0100081B01000820
:100050001B0100081B0100081B0100081B01000810
:100060001B0100081B0100081B0100081B01000800
:100070001B0100081B0100081B0100081B010008F0
:100080001B0100081B0100081B0100081B010008E0
:10009000DD2B0008A50900081B0100081B01000852
:1000A0001B0100081B0100081B0100081B010008C0
:1000B0005D2900081B0100081B0100081B01000846
:1000C0001B0100081B0100081B0100081B010008A0
:1000D0001B0100081B0100081B0100081B01000890
:1000E0001B0100081B0100081B010008DFF80CD0F1
:1000F00000F024FC004800470D380008D805002017
:100100000648804706480047FEE7FEE7FEE7FEE7B1
:10011000FEE7FEE7FEE7FEE7FEE7FEE75B290008F5
:10012000ED000008202A04DB203A21FA02F0002129
:10013000704721FA02F3D040C2F1200291400843F7
:1001400019467047D2B201E000F8012B491EFBD2DC
:1001500070470022F6E710B513460A4604461946D2
:10016000FFF7F0FF204610BDF0B480EA0102D40F83
:100170004200B2EB410F02D20246084611464A0045
:1001800042D0C30DDDB2C1F3C752AD1A202D35DA0E
:10019000C1F3160141F4000204B15242C5F1200638
:1001A00002FA06F12A411044B3EBD05F23D0C4B168
:1001B000012DA0EBC35009DCF0BC4FF0004202EA75
:1001C000C352DBB200F5000000F09CB9400000F122
:1001D000807000EBC350A0F1807040EAD1704900FC
:1001E00009E0490841EAC071A0EBC35000F50000E6
:1001F000400800EBC350F0BC00F07BB96142012223
:1002000002EB4101001BF6E7F0BC704781F00041B2
:10021000AAE780F00040A7E780EA010210B502F0EB
:100220000043400022D04A001FD0010E01EB1261B2
:10023000C0F35600C2F3560240F4000042F400023C
:10024000A0FB022000047F39140400D0401C50EAB7
:10025000124001D44000491EC2B20C0604EBD0107B
:10026000401C4008802A02D003E0002010BD20F08E
:100270000100002900DA0020184310BD30B480EAE4
:10028000010202F0004530F0004221F0004013D09E
:1002900090B1C30DD40DC2F31601C0F31600E41AD9
:1002A00041F4000140F400027D34914201D3641C0A
:1002B00000E04900002C02DA30BC002070474FF407
:1002C00000000023914201D3891A034340084FEAFA
:1002D0004101F7D151B1914202D14FF0004105E007
:1002E00002D24FF0010101E06FF0010103EBC450B5
:1002F000284430BC00F0FDB8420005D0C0F3C7521E
:100300005242914201DC0020704700EBC15070471F
:100310002DE9FE4F81EA030404F0004421F000417E
:1003200000944FF0000B23F0004350EA01045ED02C
:1003300052EA03045BD0C3F30A54C1F30A552C44B8
:10034000A4F2F3340194A0FB0254C1F3130141F46D
:100350008011C3F3130343F4801301FB024400FB39
:10036000034E840A970A44EA815447EA8357A4FB60
:10037000076802958D0A05FB07854FEA932C04FB5D
:100380000C542705029D4FEA065847EA1637B5EB8D
:1003900008056EEB070C870E920E47EA811742EABA
:1003A0008312A7FB0201B6EB0B0164EB00042B0DDB
:1003B00043EA0C335E1844EB1C50DA465146E7FB27
:1003C0000201C5F313044FEA0B3343EA14534FEA17
:1003D0000432019C43EA0603A4F10C040294009C3D
:1003E000CDE900B400F0FAF803B0BDE8F08F0020CA
:1003F0000146F9E7C10F80EAE0700844CA07962376
:10040000002100F07FB800F0004230F000400AD038
:10041000C10D01F56071C0F3160042EA0151C20836
:1004200040071143704700200146704701F0004328
:1004300030B421F0004150EA010206D00A0DA2F5C5
:100440006072C1F31301002A02DC30BC0020704747
:10045000440F44EAC104C100E01830BC00EBC250B4
:1004600000F047B830B50B46014600202022012499
:1004700009E021FA02F59D4205D303FA02F5491B72
:1004800004FA02F52844151EA2F10102F1DC30BD88
:100490002DE9F05F0546002092469B4688460646B9
:1004A000814640241BE02846414647462246FFF746
:1004B00039FE53465A46C01A914110D31146184688
:1004C000224600F04DFA2D1A67EB01084F462246EE
:1004D0000120002100F044FA17EB00094E41201ED4
:1004E000A4F10104DFDC484631462A464346BDE814
:1004F000F09F0029A8BF7047401C490008BF20F0AA
:100500000100704710B4B0FA80FC00FA0CF050EA19
:10051000010404BF10BC704749B1CCF1200421FA9A
:1005200004F411FA0CF118BF012121430843A3EB95
:100530000C01CB1D4FEA00614FEA102042BF0020A2
:1005400010BC704700EBC35010440029A4BF10BC7E
:100550007047401C490008BF20F0010010BC7047E4
:10056000F0B4002802DCF0BC00207047C0F3C75193
:10057000C0F3160040F40000CA0701D14000491E34
:100580003F2202EB6105002211464FF4000626FAD5
:1005900001F31344D418844201D8001B1A464000CA
:1005A000491C1729F3DD5100814202D24FF0FF317F
:1005B00000E0002102EBC550F0BCFFF79ABF10B578
:1005C000141E73F1000408DA401C41F10001921876
:1005D0005B411A4301D120F0010010BD2DE9F04D1F
:1005E00092469B4611B1B1FA81F202E0B0FA80F274
:1005F0002032904600F0B4F904460F4640EA0A0063
:1006000041EA0B0153465A46084313D0114653EAB8
:10061000010019D0C8F140025046FFF783FD05469E
:100620000E4650465946424600F09AF9084305D016
:10063000012004E020463946BDE8F08D0020054346
:1006400046EAE0762C4337430A986305E40AA0EBB8
:1006500008000022FD0A44EA47540A3002D500206F
:100660000146E9E7010510196941DDE9084500196E
:100670006941BDE8F04DA2E72DE9FE4F804681EAD1
:100680000300C00F0C46009021F0004123F000450C
:10069000B8EB0200A94105D24046214690461C46CF
:1006A0000B46024623F00040104347D0270DC7F306
:1006B0000A00C3F30A510290401A019040286BDAF5
:1006C000C3F3130040F4801B0098924620B100232E
:1006D000D2EB030A63EB0B0B01985946C0F14002C1
:1006E000504600F03DF906460D4650465946019ADF
:1006F00000F045F910EB08006141002487EA11522F
:1007000084EAE7731A4340D0009A62B3019A012A3F
:100710004FEA075215DC001B61EB02014FF000426B
:1007200002EA0752CDE90042001C41F58011324631
:100730002B46FFF753FF03B0BDE8F08F404621463C
:10074000F9E7001B61EB0201001C41F58013001862
:100750005B412018A2F5001747EB030140EAD57072
:10076000B6196D4111E06D084FEA360645EAC075CD
:100770004FEA0752001B61EB0201001C41F580119A
:1007800049084FEA30000019514132462B4603B068
:10079000BDE8F04FFFF713BF00980122400000238F
:1007A000D0EB020263EBE073009821464FEAE0745D
:1007B000B8EB000061EB0401E9E783F000435BE77D
:1007C00081F0004158E72DE9F04D81EA030404F07F
:1007D000004B21F0004514464FF0000A23F0004181
:1007E00050EA050220D054EA01021DD0C5F30A5791
:1007F0000246C5F31303C1F31300C1F30A5640F4D4
:10080000801543F48013A7EB0608101BD64608F2A8
:10081000FD3873EB050002D308F1010801E09218DE
:100820005B41B8F1000F03DA00200146BDE8F08D0E
:1008300000204FF48011064684460EE0171B73EB30
:10084000050705D3121B63EB050306434CEA010CB5
:1008500049084FEA300092185B4150EA0107EDD198
:1008600052EA030012D082EA040083EA0501084339
:1008700005D0101BAB4106D20122002306E0002266
:100880004FF0004302E06FF0010253101AEB060034
:100890004CEB085110EB0A0041EB0B01BDE8F04DA9
:1008A000FFF78DBEC1F30A52C1F3130140F2FF33CB
:1008B00041F480119A4202DA00200146704740F26A
:1008C00033439A42A2F2334202DC5242FFF72ABC7F
:1008D00000F046B830B5041E71F1000404DB4FF09F
:1008E0000044404264EB0101141E73F1000405DB77
:1008F0001C464FF00043524263EB0403994208BF89
:10090000904230BD002801DBC0F10040002901DB2E
:10091000C1F10041814202D24FF0004004E04FF0AB
:10092000005001D14FF0C0404FEA2062EFF3008148
:1009300062F31F6181F3008870470000064C074D89
:1009400006E0E06840F0010394E80700984710349F
:10095000AC42F6D3FFF7CEFB5039000870390008DF
:10096000202A04DB203A00FA02F10020704791406F
:10097000C2F1200320FA03F3194390407047202A64
:1009800006DBCB17203A41FA02F043EAE07306E0B7
:1009900041FA02F3D040C2F12002914008431946C7
:1009A0007047FEE7014800F059B80000CC00002075
:1009B0002DE9F047994617460D46DDF820A0FFF7D0
:1009C00019FD6FF00D042146FFF796FC06462846F8
:1009D000FFF710FD2146FFF78FFC05463846FFF76D
:1009E00009FD2146FFF788FC04460146284602F02F
:1009F000A7FDFFF708FD154FDFF854803A46434640
:100A0000FFF786FCFFF712FD2146C9F800000846F3
:100A1000FFF702FC044629460846FFF7FDFB214686
:100A2000FFF7A2FB02F068FF014686F0004002F0EB
:100A300087FDFFF7E8FC3A464346FFF769FCFFF7FE
:100A4000F5FCCAF80000BDE8F0870000F8C1631AA1
:100A5000DCA54C40704772B6FEE770472DE9F05FA9
:100A60000546006800244669D0F804908768D0F8ED
:100A70000CB0D0F810A0D0F81880F10748D0F907D2
:100A800014D001218160B80703D5284600F0BEF9D3
:100A90000CE0780702D54FF4006407E0380702D570
:100AA0004FF4805402E0284600F0AFF9F80516D55F
:100AB00029684FF480708860B80503D5284600F097
:100AC000A7F90CE0780502D544F4005407E0380596
:100AD00002D544F4804402E0284600F098F9F80377
:100AE00016D529684FF480308860B80303D52846AE
:100AF00000F090F90CE0780302D544F4004407E0DC
:100B0000380302D544F4803402E0284600F081F92D
:100B1000300707D55FEACB6004D52968102044F47C
:100B20000074C86070074FF0080707D55FEA0B70C4
:100B300004D52868C760284600F062F9B00706D5DA
:100B40002868C068800702D0284600F05AF970066D
:100B500007D55FEACA6004D52968102044F4806490
:100B60000861B00607D55FEA0A7004D528680761F6
:100B7000284600F047F9F00606D528680069800786
:100B800002D0284600F03FF9B00308D55FEAC960FB
:100B900005D5296810204860284600F035F9F00393
:100BA00007D55FEA097004D528684760284600F039
:100BB00032F9300446D55FEA497040D5F00504D5D6
:100BC0005FEAC87001D044F00104B00504D55FEAC3
:100BD000887001D544F00204700504D55FEA4870BE
:100BE00001D544F00404300529D518F0700F26D043
:100BF00008F07000402815D006DC102809D0202805
:100C00000AD0302816D10AE050280ED0602811D121
:100C10000EE044F008040DE044F010040AE044F053
:100C2000200407E044F0400404E044F0800401E0C4
:100C300044F480742868816921F070018161296819
:100C400004204860002C05D0686A2043686228466A
:100C5000FFF703FFBDE8F09F70B5040003D094F8E0
:100C6000200010B104E0012070BD204600F082F8A1
:100C70002068016841F00101016000F0BDF90546FE
:100C8000052604E000F0B8F9401B0A2811D82068B6
:100C90004068C007F6D02068016821F002010160B9
:100CA00000F0AAF905460BE000F0A6F9401B0A285F
:100CB00006D9606A40F40030606284F82060D2E7B0
:100CC000206840688007EFD4207E012820680168F2
:100CD0003DD021F080010160607E0128206801681C
:100CE00038D021F040010160A07E01282068016811
:100CF00033D021F020010160E07E012820680168E6
:100D00002ED041F010010160207F01282068016889
:100D100029D021F008010160607F01282068016866
:100D200024D021F004010160D4E902010843D4E990
:100D30000412114308436168491E08432168C861D1
:100D400000206062012084F82000002070BD41F086
:100D50008001C0E741F04001C5E741F02001CAE74A
:100D600021F01001CFE741F00801D4E741F0040180
:100D7000D9E7000010B586B00021009101910291E1
:100D8000039100681B49884232D11B48C16941F078
:100D90000071C161C16901F000710491816941F084
:100DA000040181618069154C00F0040004904FF447
:100DB000006000906946204600F02EF8A0140090D4
:100DC00002200190032003906946204600F024F899
:100DD00000221146142000F033FC142000F022FC05
:100DE00000221146152000F02BFC152000F01AFC03
:100DF00006B010BD00640040001002400008014031
:100E0000704770477047704770477047704770472A
:100E100070477047704770472DE9F84FDFF8B89179
:100E20000024A9F1040B23460F2709F1040AABF1B2
:100E3000040EC9E00125A5402A40AA427DD1674E93
:100E4000D1F804C0ACEB0608B44532D014DCBCF1D8
:100E5000030F3AD009DCBCF1000F2AD0BCF1010F1E
:100E60001CD0BCF1020F31D11DE0BCF1110F17D025
:100E7000BCF1120F2AD119E0B8F5881F19D006DC91
:100E8000B8F5803F15D0B8F5801F1FD111E0B8F537
:100E9000001F0ED0B8F5041F18D10AE0CB6815E08A
:100EA000CB681B1D12E0CB6808330FE0CB680C3316
:100EB0000CE08B682BB1012B4FF0080303D0456188
:100EC00004E0042302E0056100E00023FF2A01D8CA
:100ED000064601E000F104064FEA840501D9A5F1B8
:100EE0002005D6F8008007FA05FC28EA0C0803FA6A
:100EF00005F548EA0508C6F800804D68ED0062D5A2
:100F0000374DAE6946F00106AE61AD6924F00306C7
:100F100005F001050095334D06EB050CDCF8085093
:100F2000A607360F07FA06F825EA0805DFF8B880A5
:100F3000404503D14FF0000817E044E0DFF8AC80F3
:100F4000404502D14FF001080FE0DFF8A480404592
:100F500002D14FF0020808E0DFF89880404502D146
:100F60004FF0030801E04FF0040808FA06F848EAD9
:100F70000508CCF808804D68D9F80060ED024D46B0
:100F800001D5164300E096432E604D68DAF8006004
:100F9000AD02554601D5164300E096432E604D68DC
:100FA000DBF80060AD035D4601D5164300E09643D3
:100FB0002E604D68DEF80060ED03754601D51643DE
:100FC00000E096432E60641C0D682A46E5407FF4DD
:100FD00031AFBDE8F88F0000080401400000111097
:100FE000001002400000014000080140000C0140D8
:100FF0000010014000140140014880687047000063
:101000002C00002070B5040025D094F83D00002588
:1010100020B984F83C50204600F07EFA242084F861
:101020003D002068016821F001010160206801682D
:1010300041F4004101602068016821F40041016031
:1010400000F0C6FB4D4A6168914201D84C4900E06E
:101050004C49884201D2012070BD4B492368B0FB46
:10106000F1F15E6826F03F060E435E6063689342CE
:1010700006D94FF4967359434FF47A73B1FBF3F1E9
:101080002368491C1E6A26F03F06314319626168D5
:10109000914210D84900401EB0FBF1F2521CC2F33D
:1010A0000B02042A01D2042022E0B0FBF1F0401C24
:1010B000C0F30B001CE0A268F2B301EBC10303EB29
:1010C0000116431EB3FBF6F35B1C43F480431B0580
:1010D00049D092B301EBC10202EB0111401EB0FBFB
:1010E000F1F0401CC0F30B0040F4804040F400409D
:1010F0002168CA694CF6FF739A431043C861D4E96A
:10110000071001432068026822F0C0021143016009
:10111000D4E9030101432068826848F2FF339A430F
:1011200011438160D4E9050108432168CA6822F0AF
:10113000FF021043C86001E00EE016E0206801687D
:1011400041F0010101602564202084F83D00256301
:1011500084F83E50002070BD01EB4106431EB3FBF6
:10116000F6F35B1CB3E70120C2E701EB4101401E2F
:10117000B0FBF1F0401CC0F30B00B7E7A086010004
:1011800080841E0000093D0040420F002DE9FF4F02
:1011900083B00025DDE910799A4693460446DDF8D0
:1011A00048800095FFF728FF064694F83D00202868
:1011B0007CD11923012288492046009601F0CAF803
:1011C0000028F5D194F83C0001286FD0012084F864
:1011D0003C0020680168C90703D1016841F00101A2
:1011E00001602068016821F400610160222084F818
:1011F0003D00402084F83E0025646762A4F82A90F0
:10120000608D20857548E062CDE9008653465A46D8
:101210002046049900F0A0FF00287CD1208DDFF843
:10122000C091202768B1012814D0022820680168E5
:101230001ED041F48061016020684169806900909E
:10124000BCE02068416981690091016841F4007146
:101250000160B3E02068016821F48061016072B62A
:101260002068416981690091016841F400710AE0D8
:1012700041F40061016072B62068416981690091A2
:10128000016821F48061016062B697E0032865D8A7
:1012900001280CD0022843464FF000024946204660
:1012A00000960BD001F056F8A8BB0CE091E0324656
:1012B0004146204601F0F4F868BB72E001F04AF8BC
:1012C00048BB72B633E02068016821F48061016098
:1012D00072B620680069616A0870606A401C6062CA
:1012E000208D401E2085608D401E60853D4846F261
:1012F000A8110068B0FBF1F0C0EBC00000EB80006B
:101300000090401E009007D020684069C04340070D
:101310000DD50098F5E727E044F8305F6773A573B3
:10132000206940F02000206162B625731CE020682F
:10133000016841F40071016020680069616A087009
:10134000606A401C6062218D491E2185618D491EA5
:10135000618562B621680969017026E0324641461E
:10136000204601F09DF818B1012007B0BDE8F08FCC
:1013700020680069616A0870606A401C6062208DA4
:10138000401E81B22185608D401E608520684269C3
:10139000D243520712D4032903D1016821F480619A
:1013A000016020680069616A0870606A401C6062C0
:1013B000208D401E2085608D401E6085208D002878
:1013C0007FF464AF84F83D7084F83E5084F83C505C
:1013D000CBE70220C9E70000020010000000FFFF79
:1013E00004000100380000202DE9FF4F83B09A4629
:1013F000DDE9119793460446DDF84080FFF7FCFDD8
:10140000054694F83D0020287FD119230122404948
:101410002046009500F09EFF002876D194F83C000D
:10142000012872D0012084F83C0020680168C907B7
:1014300003D1016841F0010101602068016821F4D5
:1014400000610160212084F83D00402084F83E00C6
:1014500000262664C4F82480A4F82A90608D208594
:101460002C48E062CDE9007553465A46204604995F
:1014700000F0F0FE70B930E02A463946204601F00F
:1014800047F858B1206C042804D12068016841F461
:1014900000710160012007B0BDE8F08F606A21682B
:1014A00000780861606A401C6062218D491E89B223
:1014B0002185628D521E628522685369DB435B077A
:1014C0000BD469B100781061606A401C6062208DA5
:1014D000401E2085608D401E6085208D0028CBD168
:1014E0002A463946204600F009FF0028CAD154F8A0
:1014F0003D0B016841F400710160202004F81E09D1
:10150000E67766770020C6E7FFE70220C3E7000022
:10151000020010000000FFFF10B586B0002100910E
:1015200001910291039100680F4988421AD10F4C32
:10153000A06940F00800A061A069694600F00800B9
:101540000490C020009012200190032003900848CE
:10155000FFF762FCE06940F40010E061E06900F42C
:101560000010049006B010BD00540040001002406E
:10157000000C014002488168027811448160704784
:101580002C000020074810B5016841F010010160EF
:10159000032000F075F80F2000F006F800F024F8A2
:1015A000002010BD0020024070B50D4D04464FF4E0
:1015B0007A712878B1FBF0F00A490968B1FBF0F0C4
:1015C00000F0DCFA48B9102C07D200222146501E48
:1015D00000F036F800206C6070BD012070BD000086
:1015E0002C000020380000200C4808B5816941F02B
:1015F00001018161816901F001010091C16941F03E
:101600008051C161C06900F0805000900448416879
:1016100021F0E06141F00071416008BD001002401E
:1016200000000140002809DB00F01F020121914069
:101630004009800000F1E020C0F800117047000070
:10164000F0B40E4B1B680C46C3F30223C3F107052D
:10165000042D00D90425191D072901D2002300E01B
:10166000DB1E012606FA05F1491E214099409E40E5
:10167000761E16403143F0BC01F0DBBA0CED00E001
:10168000064900F0070208684FF6FF03184040EAD9
:101690000220034A10430860704700000CED00E090
:1016A0000000FA052DE9F0470F46050061D0434ED2
:1016B000306800F00700B84209D2306820F0070017
:1016C00038433060306800F00700B84251D12868D4
:1016D0003B4C810712D5400703D5606840F4E060B9
:1016E00060602878000703D5606840F4605060604F
:1016F0006068A96820F0F000084360602878C0079F
:1017000028D06868012810D02168022810D08907E5
:1017100000292EDA616821F0030101436160FFF7BF
:101720006BFC804641F288390DE021688903EFE7C0
:101730008901EDE7FFF760FCA0EB0801494502D9FC
:101740000320BDE8F0876068696800F00C00B0EB2A
:10175000810FEFD1306800F00700B8420BD9306834
:1017600020F0070038433060306800F00700B842CE
:1017700001D00120E5E72878400705D56068E968D1
:1017800020F4E060084360602878000706D56068B0
:10179000296920F4605040EAC100606000F038F828
:1017A0006168084AC1F30311515CC84006490860EA
:1017B00006480068FFF7F8FE0020C2E7002002405C
:1017C00000100240363900083800002030000020A8
:1017D0000448054900684968044AC1F30221515C84
:1017E000C840704738000020001002404639000809
:1017F0000448054900684968044AC1F3C221515CA4
:10180000C8407047380000200010024046390008E8
:101810000E4A51680E4801F00C03042B11D0082B1E
:101820000FD10C48C1F38343C903C05C0AD551688A
:10183000084AC1F34041921E515C054A5043B0FB37
:10184000F1F070470449484370470000001002401F
:1018500000127A002639000800093D002DE9F84FF2
:10186000040070D02078C04DC00749D06868C0F32C
:101870008100012807D06868C0F38100022809D1DF
:101880006868C00306D52868800339D560680028D9
:10189000E7D035E06068B0F5803F0BD010B1B0F50F
:1018A000A02F11D0286820F480302860286820F408
:1018B000802002E0286840F480302860606890B1A1
:1018C000FFF79AFB06460AE0286840F4802028606B
:1018D000F0E700BFFFF790FB801B642873D82868EF
:1018E0008003F7D50CE0FFF787FB064605E000BF55
:1018F000FFF782FB801B6428F0D828688003F7D4A8
:1019000020789A4E80074FF001094FF0000839D532
:10191000686810F00C0F07D06868C0F381000228D7
:1019200009D16868C00306D42868800714D52069E7
:10193000012808D110E02069B0B1C6F80090FFF787
:101940005BFB074605E00AE1FFF756FBC01B0228D8
:10195000C4D828688007F7D52868616920F0F800A6
:1019600040EAC10028600DE0C6F80080FFF744FBA4
:10197000074604E0FFF740FBC01B022823D8286875
:101980008007F7D4207800072CD57948A169D9B110
:10199000C0F80090FFF730FB074604E0FFF72CFB90
:1019A000C01B02280FD8686A8007F7D571484FF42A
:1019B000FA510068B0FBF1F0009000BF0098411EA2
:1019C0000091FAD20EE080E0C0F80080FFF714FB2F
:1019D000074604E0FFF710FBC01B022875D8686AB1
:1019E0008007F7D42078400760D5E8690027C00059
:1019F00008D4E86940F08050E861E869012700F008
:101A0000805000905C480168C90513D40168834682
:101A100041F480710160FFF7EFFA824606E000BFF3
:101A2000FFF7EAFAA0EB0A0064284ED8DBF80000C2
:101A3000C005F5D5E06801280AD008B1052813D003
:101A4000286A20F001002862286A20F0040002E0E1
:101A5000286A40F001002862E06841F2883B98B1B2
:101A6000FFF7CAFA82460BE0286A40F004002862B9
:101A7000EEE700BFFFF7C0FAA0EB0A0159455AD8BC
:101A8000286A8007F6D50CE0FFF7B6FA824605E033
:101A9000FFF7B2FAA0EB0A0159454CD8286A800733
:101AA000F6D41FB1E86920F08050E861E06988B39E
:101AB0006968C1F38101022944D00228C6F8608018
:101AC00004D0FFF799FA044638E034E0FFF794FABF
:101AD000074604E0FFF790FAC01B02282BD82868BD
:101AE0008001F7D4206AB0F5803F05D16868A1680D
:101AF00020F4003008436860D4E9080108436968AD
:101B000021F4741108436860C6F86090FFF774FA16
:101B1000044606E025E000BFFFF76EFA001B02282E
:101B200009D828688001F7D51BE000BFFFF764FAE9
:101B3000001B022802D90320BDE8F88F2868800125
:101B4000F4D40EE00128F7D06868226A00F48031EE
:101B5000914204D1616A00F47010884201D00120E2
:101B6000EAE70020E8E700000010024000004242DF
:101B700080044242380000200070004010B5401E32
:101B8000B0F1807F01D3012010BD4FF0E0246061EF
:101B90000F21601701F04DF80020A061072020619F
:101BA000002010BD7047704770B590F83C20012AA6
:101BB00026D0012480F83C40022280F83D200368B2
:101BC0005A689D6822F070060A6832435A600D4BCD
:101BD00002689A4208D0B2F1804F05D00A4B9A426F
:101BE00002D00A4B9A4204D1496825F08003194378
:101BF000916080F83D40002180F83C10084670BD9F
:101C0000022070BD002C014000040040000800408C
:101C100010B5040003D094F83D0010B107E0012096
:101C200010BD002084F83C00204600F01FF8022080
:101C300084F83D00211D206800F096FE012084F804
:101C4000460084F83E0084F83F0084F8400084F8A1
:101C5000410084F8420084F8430084F8440084F88A
:101C6000450084F83D00002010BD000008B5006864
:101C7000B0F1804F12D10A48C16941F00101C16140
:101C8000C069002200F00100009011461C20FFF7FF
:101C9000D7FCBDE808401C20FFF7C4BC08BD00000D
:101CA0000010024090F83D10012901D0012070473A
:101CB000022180F83D100168CA6842F00102CA6042
:101CC00000680B49884208D0B0F1804F05D009491F
:101CD000884202D00849884204D1816801F0070196
:101CE000062903D0016841F001010160002070471E
:101CF000002C0140000400400008004070B504467C
:101D000090F83C000025012817D0012684F83C609B
:101D1000022084F83D002068826822F0770222F4D5
:101D20007F4282600868502838D00DDC20284FD0D0
:101D300005DC90B3102811D14AE0022070BD302894
:101D400046D040280AD13BE060282FD070280DD023
:101D5000B0F5805F03D0B0F5005F12D0012584F8A4
:101D60003D60002084F83C00284670BDCB68D1E976
:101D70000121206800F034FE2068816841F077017D
:101D800009E0CB68D1E90121206800F029FE206834
:101D9000816841F480418160E1E719E0CA684968DF
:101DA000206800F02FFE5021206806E0CA684968CC
:101DB000206800F038FE6021206800F01BFECEE7AE
:101DC000CA684968206800F01DFE40212068F4E7D9
:101DD000226801461046F0E770472DE9F0410446BD
:101DE0000068C66805694FF00007A90713D5B10759
:101DF00011D5F91E016101202077206880698007D4
:101E0000204602D0FFF7E8FF04E000F07EF820460D
:101E100000F07CF82777680716D5700714D521687D
:101E20006FF004000861022020772068806910F4B8
:101E3000407F204602D0FFF7CFFF04E000F065F8B6
:101E4000204600F063F82777280715D5300713D50B
:101E500021686FF008000861042020772068C069BD
:101E60008007204602D0FFF7B7FF04E000F04DF8EE
:101E7000204600F04BF82777E80616D5F00614D573
:101E800021686FF010000861082020772068C06981
:101E900010F4407F204602D0FFF79EFF04E000F0E0
:101EA00034F8204600F032F82777E80708D0F0072A
:101EB00006D021686FF001000861204600F028F884
:101EC000280608D5300606D521686FF08000086125
:101ED0002046FFF767FE680608D5700606D521681C
:101EE0006FF040000861204600F062F8A8060AD5AD
:101EF000B00608D521686FF0200008612046BDE8D3
:101F0000F041FFF750BEBDE8F08170477047000018
:101F100038B50068B0F1804F41D1214C2088411C78
:101F2000218014283BD104F108039A1E911E1D48FC
:101F300000F0E8FB04F10E039A1E911E194800F010
:101F4000FFFBB4F90A00FEF755FA174D2946FEF7D4
:101F500095F9E061B4F90C00FEF74CFA2946FEF75A
:101F60008DF9206204F118000090031FB4F90820D5
:101F7000B4F90610B4F90400FEF71AFDD4E90431EF
:101F80000A48E26900F006FBA06208482369443071
:101F9000226AA16900F0FEFA60620020208038BD4C
:101FA00000000020F4000020000003434400002053
:101FB000704770B5040004D094F84100002510B1BA
:101FC00006E0012070BD84F84050204600F024F85F
:101FD000242084F841002068C16821F40051C160C8
:101FE000204600F065FD2068016921F490410161FF
:101FF0002068416921F02A0141612068C16841F4EB
:102000000051C1606564202084F8410084F84200DA
:102010006563002070BD000030B585B000240094D9
:1020200001940294039400681449884223D114480F
:10203000C16941F40031C161C16901F40031049109
:10204000816941F00401816180690E4D00F0040056
:102050000490042000900220019003200390694620
:102060002846FEF7D9FE0820CDE900046946284637
:102070000294FEF7D1FE05B030BD000000440040E0
:1020800000100240000801402DE9F843044690F892
:102090004100984616460D46202802D00220BDE891
:1020A000F88385B17EB100206064212084F841006E
:1020B000FEF7A2FFA6848146E684A0682027B0F53B
:1020C000805F02D003E00120E9E7206910B12E46CD
:1020D00000250EE000260CE08021204600F044FDA3
:1020E000A8B9C6B116F8010B21684860E08C401E03
:1020F000E084E08C4B464FF00002CDF800800028D1
:10210000EAD14FF04001204600F02EFD40B184F8A6
:1021100041700320C3E735F8020BC0F30800E3E782
:1021200084F841700020BAE7FEE701684A69D243AB
:1021300052050FD46FF480624A61002140F8301FCD
:10214000202242738173026942F00402026101732A
:1021500001207047002070472DE9F84F04460068C1
:1021600089460B9D01689846174641F480610160DD
:102170002068016841F48071016000954FF0011BF7
:102180000022594620460A9B00F0E4F84FF4007AFA
:1021900040B120680068C00501D5C4F840A0032004
:1021A000BDE8F88F216809F0FE0008612B46284938
:1021B00020460A9A00F016F9F0BB20684169806950
:1021C00000902A4620460A9900F0A2F940B1206CFE
:1021D00004283AD12068016841F40071016034E0BC
:1021E000FEB2B8F1010F09D02168380A08612A4609
:1021F00020460A9900F08CF90028E8D12068066191
:102200002A4620460A9900F083F90028DFD1206889
:10221000016841F480710160009500225946204612
:102220000A9B00F097F80028B3D1216809F0FF005D
:1022300040F00100086100E007E02B460449204619
:102240000A9A00F0CFF80028AAD00120A8E70000E1
:10225000020001002DE9F843044600680D46DDE95F
:10226000089701689846164641F4807101604B4614
:1022700000224FF001112046009700F06BF848B1A2
:1022800020680068C00502D54FF400702064032068
:10229000BDE8F883216805F0FE0008613B464A4628
:1022A0001549204600F09EF888B920684169806988
:1022B00000903A464946204600F02AF948B1206C81
:1022C000042804D12068016841F4007101600120F4
:1022D000DEE7F5B2B8F1010F09D02168300A0861D4
:1022E0003A464946204600F013F90028E7D1206815
:1022F00005610020CCE700000200010070B5164621
:102300000D4604461EE02046FFF70FFF08B10120EE
:1023100070BD681C16D0FEF76FFE801BA84200D867
:1023200085B920684069C04340070BD5002044F8B8
:10233000300F20216173A073216941F020012161D8
:102340002073E4E720684069C0434007DBD40020E5
:1023500070BD00002DE9F047984617460D4604462B
:10236000C1F30746DDF820902AE000BFB8F1FF3F37
:1023700026D0FEF741FEA0EB0901414502D8B8F195
:10238000000F1DD12068012E16D0806925EA0000BB
:102390000004000C12D00020B84211D1002044F8F3
:1023A000300F20216173A073216941F02001216168
:1023B00020730120BDE8F0874069E7E70120EBE7E3
:1023C0002068012E0AD0806925EA00000004000C74
:1023D00006D00020B842C9D00020EBE74069F3E7FF
:1023E0000120F7E72DE9F047984616460D460446CA
:1023F0004FF000094FF0200AC1F3074723E020689F
:102400004069C043400515D42068016841F400715B
:10241000016021686FF480604861C4F8309084F8EE
:102420003DA084F83E90216C41F00401216484F8C1
:102430003C9021E0701C06D0FEF7DEFDA0EB08000A
:10244000B04203D816B1012F1FD021E02068012F20
:1024500015D0806925EA00000004000C18D000BFE8
:1024600044F8309F84F80DA084F80E90216941F063
:102470002001216184F80C900120BDE8F0874069BB
:1024800025EA00000004000CEAD12068406901E060
:102490002068806925EA00000004000CAFD1ECE759
:1024A0002DE9F041002590460E460446202728E0FD
:1024B0004069C043C0060CD454F8301B6FF01000C4
:1024C000486144F810596777A577206A206225771C
:1024D00014E0FEF791FDA0EB0800B04200D886B9E9
:1024E00020684069C04340060BD544F8305F6773ED
:1024F000A573206940F02000206125730120BDE80C
:10250000F08120684169C9434906D1D40020F6E72B
:1025100070B516460D4604461EE02046FFF705FE40
:1025200008B1012070BD681C16D0FEF765FD801B48
:10253000A84200D885B920684069C04300060BD581
:10254000002044F8300F20216173A073216941F00D
:10255000200121612073E4E720684069C043000640
:10256000DBD4002070BDF0B50DF1140C9CE8F00038
:10257000C0E90012C0E902120021016141618161DC
:10258000C16100F1240C01628CE87A008363C0E928
:102590000F71F0BD2DE9FF4F044681B0D4E90F0162
:1025A0001746FDF739FE4FF07E5B5946FDF7DCFD1F
:1025B000054629462068FDF72FFE0646A0602946FD
:1025C0006068FDF729FEE060D4F814A0814651460A
:1025D0003846FDF71BFE01460498FDF71DFE2169F4
:1025E000FDF7C2FDD4F82480074641460498FDF764
:1025F00013FE0090E5692946FDF708FE216AFDF704
:1026000005FE3146FDF7B0FD0499FDF705FEA16911
:10261000FDF7AAFD064629460098FDF7FAFD054696
:1026200048460499FDF7F8FD4146FDF79DFD8046BB
:1026300039460298FDF7EAFD81460146FDF7ECFDBB
:1026400001462064E06AFDF7E7FD5946FDF78CFD81
:10265000A26A01461046FDF711FE616B01F0B2F867
:10266000226B0146104601F099F80146A0633046FE
:10267000FDF77AFD01465846FDF700FE8346014608
:102680003046FDF7C9FD009059462846FDF7C4FDC8
:10269000834649460098FDF7BFFD3946FDF764FDC6
:1026A0000746206149465846FDF7B6FD5146FDF7FD
:1026B0005BFD606131460098FDF7AEFD3146FDF7E8
:1026C000A8FDA06129460098FDF7A6FD2946FDF763
:1026D000A0FDE06131465846FDF79EFD2946FDF715
:1026E00098FD206229465846FDF796FD4146FDF7C4
:1026F00090FD606205B03846BDE8F08F00226B2186
:1027000000F03CB870B586B01C4615460E464FF03A
:10271000FF33062203A98DE80E0001233B22D021BE
:10272000FEF734FDBDF80C0040BA3080BDF80E0055
:1027300040BA2880BDF8100040BA208006B070BDB5
:1027400070B586B01C4615460E464FF0FF33062284
:1027500003A98DE80E0001234322D021FEF716FDC8
:10276000BDF80C0040BA3080BDF80E0040BA288099
:10277000BDF8100040BA208006B070BD17B583B018
:102780004FF0FF34012305AA8DE81C000A46D02132
:10279000FEF72AFE06B010BD0E4810B50C490160C8
:1027A0000C21416000214FF440328160C0E90312E6
:1027B0004161017641768176C17601774177FEF7F6
:1027C0004BFA002803D0BDE81040FEF744B910BD15
:1027D00000640040CC0000200D4808B5816941F03C
:1027E00020018161816901F020010091816941F03E
:1027F00004018161816901F004010091816941F066
:1028000008018161806900F00800009008BD0000A7
:10281000001002400D4810B50B4901600C494160A1
:1028200000214FF480428160C0E90312416181615F
:10283000C1610162FEF7E6FB002803D0BDE810404D
:10284000FEF709B910BD000000540040F40000205C
:10285000801A060010B586B0002416480094019432
:102860000294039404944FF0804105940160482140
:10287000C0E9011440F2E731C0E903148461FFF7B5
:10288000C7F908B1FEF7E7F84FF4805000906946A9
:102890000848FFF733FA08B1FEF7DDF8049404A9FD
:1028A00004480594FFF780F9002801D0FEF7D3F81B
:1028B00006B010BD480100200C4810B50A4901605F
:1028C0004FF4E1314160002181600C22C160C0E918
:1028D00004128161C161FFF76CFB002803D0BDE8E1
:1028E0001040FEF7B8B810BD004400409001002031
:1028F000FEE7FEE770477047FEF73CBE30B58FB08D
:1029000028216846FDF725FC14210AA8FDF721FCC3
:1029100001210804CDE9001000240294022504914D
:10292000CDE907504FF4E01009906846FEF796FF96
:1029300008B172B6FEE70F20CDE90A054FF48060BA
:10294000CDE90C4002210AA80E94FEF7ABFE002848
:1029500001D072B6FEE70FB030BD70470148FFF7F7
:102960003CBA000048010020F0B50268194B1A4C2F
:102970001A4D4FF08047984205D0B84203D0A0428C
:1029800001D0A84203D122F070064A68324398422F
:1029900005D0B84203D0A04201D0A84203D122F40E
:1029A0004074CA6822434C6922F0800222430260CC
:1029B0008A68C2620A688262984201D10969016329
:1029C000012141610169C90703D0016921F00101B9
:1029D0000161F0BD002C01400004004000080040EF
:1029E00010B5846842EA032224F47F440A43224358
:1029F000826010BD826822F070020A4342F0070133
:102A00008160704710B5036A046A24F0010404620F
:102A1000846924F0F00444EA021423F00A020A4311
:102A20008461026210BD10B5036A046A24F01004C8
:102A30000462846923F0A00324F4704444EA02325F
:102A400043EA01118261016210BD10B50446FEF730
:102A5000D3FA001B02D54FF6FF71084480B210BDB7
:102A600001680C3151E8002F22F4907241E80023F4
:102A7000002BF5D10168143151E8002F22F001023A
:102A800041E80023002BF5D1016B012909D1016830
:102A90000C3151E8002F22F0100241E80023002BF6
:102AA000F5D1202180F84210002101637047000019
:102AB00070B5044600680169E26821F44051114391
:102AC00001612169A0680843616908432168CA68F7
:102AD00041F20C639A430243CA6020684169A269CB
:102AE00021F44071114341611E492068884202D19E
:102AF000FEF77EFE01E0FEF76BFE00EBC00101EB8E
:102B00000012606864218000B2FBF0F3B3FBF1F3C4
:102B10006FF018067343B2FBF0F5B2FBF0F605EB6D
:102B20008305322303EB0515B5FBF1F5B6FBF1F692
:102B300005F0F00505EB0615B2FBF0F6B2FBF0F080
:102B4000B0FBF1F06FF01802504306EB800003EB8E
:102B50000010B0FBF1F0216800F00F0028448860FD
:102B600070BD0000003801402DE9F8439846174633
:102B70000D460446089E24E0701C22D0FEF73CFA65
:102B8000A0EB0800B0421AD8CEB12068C16849074E
:102B900017D5802D15D0402D13D00168C9430907E2
:102BA0000FD401680025406800902046FFF758FFC9
:102BB0000820606484F840500120BDE8F8830320B9
:102BC000FBE72068006835EA000004D00020B84226
:102BD000D2D00020F1E70120F9E700000148FDF71D
:102BE0003DBF0000CC000020FEE700000FB4054B05
:102BF00010B503A9044A029800F00AF910BC5DF868
:102C000014FB0000ED3700083C00002041000802E2
:102C100018BF04200A0E18BF40F001004FF07F4299
:102C200032EA010108BF40F00200012808BF052078
:102C300070470907090E002804DB00F1E02080F846
:102C40000014704700F00F0000F1E02080F8141D20
:102C50007047FDF789BA6FF05E010807FDF74CBBBE
:102C600002E008C8121F08C1002AFAD17047704755
:102C7000002001E001C1121F002AFBD170470000B3
:102C80000149086070470000400000202DE9FF5F07
:102C900082B00021DDE90430020DDDF840B00343CD
:102CA00018D044F61050A2F2FF3242431514119886
:102CB00001281FD0A5EB0B00401C5FEA000A4FF073
:102CC00000064E4FDFF83891B046504615D5CAF190
:102CD000000413E0119801244AA3012801D16FEAEE
:102CE0000B010298119AC0E90031C0E9024206B016
:102CF000BDE8F09FCBF10000DFE704460021404A29
:102D0000491842EB0450CDE9001012E0E00707D06B
:102D100032463B4640464946FDF7FAFA8046894628
:102D200032463B4610461946FDF7F2FA06460F4674
:102D30006410002CEAD1DDE90401DDE90023BAF1D9
:102D4000000F06DAFDF7E4FA42464B46FDF7E0FADB
:102D500005E0FDF738FD42464B46FDF734FD0446DD
:102D60000E460022284BFDF7B5FD03D84FF0FF308B
:102D7000014607E00022254B20463146FDF77CFC4A
:102D8000FDF790FD102409E0002C0ADB0A22002345
:102D9000FDF77EFB039B30321A55641E50EA010298
:102DA000F2D1641C039AC4F111031444119A012A4C
:102DB00003D0012208430DD10AE0084304D00020CB
:102DC0004FF0110B119072E7A3EB0B056D1E0DE098
:102DD0005B4504DD4FF0000205F1010504E003DA74
:102DE0004FF00002A5F10105002AECD002981199DC
:102DF000C0E90231C0E9004579E700000000144055
:102E00000000F03F300000000000F0430000E03F11
:102E10002DE9FF4F95B09B468946064600250FE2F7
:102E2000252877D100242746F84A0121059400E09F
:102E3000044316F8013F203B01FA03F01042F7D19A
:102E400030782A2811D06FF02F033078A0F13002AB
:102E5000092A16D8059A44F0020402EB820203EB19
:102E600042021044761C0590EFE759F8042B0592B6
:102E7000002A03DA504244F40054059044F002045E
:102E8000761C30782E2816D116F8010F44F0040471
:102E90002A280DD06FF02F023078A0F13003092BD3
:102EA00009D807EB870302EB4303C718761CF3E747
:102EB00059F8047B761C30786C280FD006DC4C283F
:102EC00017D068280DD06A2814D104E0742810D0D7
:102ED0007A280FD10DE044F400140AE044F4801481
:102EE00001E044F440147278824202D104F5801467
:102EF000761C761C307866280BD013DC582877D0E7
:102F000009DC002875D04528F6D04628F4D047289B
:102F10001AD19DE118E0632835D0642879D065285E
:102F200012D195E1702873D008DC6728F1D06928A8
:102F30006FD06E280DD06F2806D1B5E073282CD045
:102F4000752875D0782874D05A46179990476D1C0B
:102F500075E1C4F30250022809D003280DD0D9F836
:102F6000001004280DD00D6009F1040967E1D9F8BB
:102F70000010EA17C1E90052F6E7D9F800100D80F9
:102F8000F2E70D70F0E719F8041B8DF8001000202F
:102F90008DF80100EA46012003E059F804AB4FF038
:102FA000FF3061074FF0000102D40DE008F101018C
:102FB0008846B9420FDA8045F8DB1AF80810002974
:102FC000F4D108E008F1010188468142FADB1AF8E1
:102FD00008100029F6D105985B46A0EB08072146AA
:102FE0003846179A00F094FA284400EB080507E0E9
:102FF0004DE029E10DE01AF8010B5A461799904768
:10300000B8F10108F7D25B4621463846179A13E11A
:1030100042E00A220092C4F302524FF0000A022A50
:1030200008D059F804CB032A4FEAEC710AD00DE01E
:1030300029E02AE009F1070121F00702F2E802C1C4
:10304000914609E00FFA8CFC4FEAEC71042A03D197
:103050004FFA8CFC4FEAEC71002907DA0A4600218E
:10306000DCF1000C61EB02012D2202E0220504D507
:103070002B228DF80420012203E0E20701D0202258
:10308000F7E7904659E00A2102E010220DE01021F6
:103090004FF0000A00910BE010224FF0000A44F0BC
:1030A00004040827009203E008224FF0000A00926F
:1030B000C4F30252022A05D059F804CB0021032A96
:1030C00008D009E009F1070121F00702F2E802C186
:1030D000914605E01FFA8CFC042A01D10CF0FF0C8C
:1030E0004FF00008220728D5702806D0009B83F0F7
:1030F000100353EA0A0305D00EE040228DF80420A5
:10310000012208E05CEA010206D030228DF804209A
:103110008DF8050002229046009B83F0080353EAD5
:103120000A030AD15CEA010201D1620705D5302207
:103130008DF804204FF001087F1E582804D034A0D9
:1031400003900EA802900DE036A0F9E753466046C2
:10315000009AFDF79DF984460398825C0298401E10
:10316000029002705CEA0100F0D1029806A9081AE8
:1031700000F1200A600702D524F4803400E0012722
:10318000574502DDA7EB0A0000E0002000EB0A0132
:10319000009005984144401A0590E00306D45B4630
:1031A0002146179A059800F0B3F90544002706E078
:1031B00001A85A46C05D179990476D1C7F1C474572
:1031C000F6DBE0030CD55B462146179A059800F024
:1031D0009FF9054404E030205A46179990476D1C2A
:1031E0000099481E00900029F5DC08E00298029939
:1031F0005A460078491C0291179990476D1CBAF104
:103200000001AAF1010AF1DC65E1000009280100D2
:10321000303132333435363738396162636465664C
:10322000000000003031323334353637383941420E
:10323000434445460000000000F058F90544761C60
:10324000307800287FF4ECAD19B02846BDE8F08F47
:10325000620700D4062709F1070222F0070CFCE8F8
:103260000223E14603F000485FEA080C02D00FF2A7
:10327000702C0DE05FEA045C02D50FF2682C07E0C9
:103280005FEAC47C02D00FF2602C01E0AFF2700C58
:103290004FF0FF3823F00043CDF850C065280CD024
:1032A00006DC452809D046281DD047283DD13DE001
:1032B000662818D067287ED138E00021112F01DB65
:1032C000112000E0781CCDE9000106A90EA8FFF747
:1032D000DDFCDDE90F010E9A03910021009207F158
:1032E000010A04914DE04FF000400097CDE9011034
:1032F00006A90EA8FFF7CAFCDDE90F0203920E9B98
:1033000011990022DDF80CA00093049211B9791CE8
:1033100000EB010AB7EB0A0004D4C0F1FF3007F15B
:10332000010A0490AAEB0700019044E0012F00DAA3
:1033300001270021112F01DD112000E03846CDE9E1
:10334000000106A90EA8FFF7A1FCDDE90F010E9A06
:103350000391002104910092BA4621070CD40399ED
:10336000514500DA8A46BAF1010F05DD009AAAF14B
:103370000101515C302908D0B84202DA10F1040F83
:1033800006DA0121CDE9011015E0AAF10101E9E712
:10339000002805DC049901440491AAEB000102E035
:1033A000411C514500DD8A460499401A401C019099
:1033B0004FF000400290200704D40198504501DBF3
:1033C000CDF8048000208DF84F0002980DF14F07D2
:1033D000B0F1004F25D02B200E9002984FF002083C
:1033E00000280CDA404202902D200E9007E00A21BE
:1033F0000298FDF737F83031029007F8011DB8F157
:103400000001A8F10108F2DC02980028EFD1791E32
:103410000E980870307800F0200040F0450007F862
:10342000020D12A8C01B00F107081498007800B123
:10343000012000EB0A01019801EBE071059841447D
:10344000401A401E0590E00306D45B462146179AB9
:10345000059800F05DF805441498007818B15A46B4
:10346000179990476D1CE00324D55B462146179AB7
:10347000059800F04DF805441CE00498002807DB8F
:10348000DDE90301884203DD0098405C179901E003
:10349000179930205A469047049805F10105401CC1
:1034A00004900198401E019004D12E205A4617998D
:1034B00090476D1CBAF10001AAF1010ADDDC05E0BC
:1034C00017F8010B5A46179990476D1CB8F1000187
:1034D000A8F10108F4DC5B462146179A0598ABE693
:1034E0002D0000002B000000200000002DE9F0411D
:1034F000044600251E461746880404D405E03946D4
:103500002020B0476D1C641EF9D52846BDE8F08127
:103510002DE9F041044600251E469046C80301D51A
:10352000302700E02027880404D505E041463846CE
:10353000B0476D1C641EF9D52846BDE8F081000037
:103540002DE9F0474FF0684202EB40030C46054678
:10355000B3F1654F3CBF02EB4102B2F1654F7CD243
:10356000C0F3C753C1F3C7529A1A1B2A06DD10F0E5
:10357000004F14BF76487748BDE8F08712F11A0F64
:1035800017DA11F0004F06D010F0004F0CBF724850
:103590007248BDE8F08721462846FCF76FFE0446D6
:1035A000FFF734FB042808BFFFF755FB2046BDE8B2
:1035B000F0874200B2EB410F25D910F0004F19BF40
:1035C000674F684E684F694E224685F000441546A5
:1035D0000A4680F0004110460A1A5200B2F1807F7C
:1035E00040D248406249DFF88CA110F0004F18D05B
:1035F0004FF03F483846FCF709FE07465146304633
:10360000FCF704FE17E011F0004F04BF0026374618
:10361000E2D010F0004F19BF574F584E584F594E37
:10362000DAE74FF07C583846FCF79EFD07465146D6
:103630003046FCF799FD064641462846FCF7ECFD6E
:103640002146FCF791FD824621464046FCF7E4FD09
:103650002946FCF7DEFD514600E037E0FCF70EFEA0
:10366000044604E021462846FCF708FE04460146CD
:10367000FCF7D2FD80464449FCF7CEFD4349FCF7F8
:1036800073FD4146FCF7C8FD4149FCF76DFD41461D
:10369000FCF7C2FD3F49FCF767FD4146FCF7BCFD66
:1036A0003D49FCF761FD054641462046FCF7B4FD67
:1036B0002946FCF7B1FD3146FCF756FD2146FCF7E3
:1036C00053FD3946BDE8F047FCF74EBD4FF07F4251
:1036D000B2EB400F28BFB2EB410F03D2BDE8F04779
:1036E000FFF7B7BA40EA01035B0008BF44F0FF41AF
:1036F0000AD0B2EB400F08BFB2EB410F06D125F064
:10370000804024F0804105460C4629E7B2EB400F8B
:1037100012BF5FEA410245F0FF4004F000413FF470
:103720001FAF4A0092EA40033FF51AAF002AACBF30
:103730004FF09F464FF03E563146FCF76DFD054673
:1037400031462046FCF768FD04462846214607E737
:10375000DB0FC9BFDB0FC93FDB0F4940DB0F49C09F
:103760000000C9BF22AAFDB90000C93F22AAFD3945
:103770000060ED3EC30ACE37000049C022AA7DBAE0
:103780000000494022AA7D3A2DAD65BD8FB8D53DD8
:103790000FB511BE61C84C3EA8AAAABE70B50C46B2
:1037A0000546FDF7AFF800F07040B0F1005F07D0BC
:1037B00024F00040C0F1FF40C00F04BF204670BDA0
:1037C000284670BD70B50C460546FDF79BF800F025
:1037D0007040B0F1004F07D024F00040C0F1FF402E
:1037E000C00F04BF204670BD284670BD38B50446E2
:1037F0008DF800004FF6FF73012269460248FEF77C
:1038000043FC204638BD0000900100201FB5FDF7A5
:10381000B9FEFFF773F8FEF7DFFFFEF7BDFFFEF717
:10382000F9FFFFF749F8FFF715F81E48FEF766FFA6
:103830001D4C1E4E4FF07C55DFF874801D4FDFF895
:103840007890CDE90254CDE900863B464A461946B8
:103850001A48FEF788FE1948CDE90254CDE90086E2
:103860003B464A4619464430FEF77DFE1448FEF7B3
:1038700019FA144C6088FFF7E8F83228FAD9A06AE0
:10388000FCF7C1FD05460E46606AFCF7BCFDCDE9BC
:10389000005602460B460CA0FFF7A8F9FDF7ACFB5B
:1038A0006080E7E7F40000209A99993E0AD7A33B8D
:1038B000CDCC4C3F0AD7A33C6F12033B4400002001
:1038C000480100200000002066696C746572656420
:1038D0005F7069746368203D20252E32662C66690E
:1038E0006C74657265645F726F6C6C203D20252E70
:1038F00032660D0A0000000070B50546FCF730FE88
:10390000044620F00040C0F1FF40C00F08D025F071
:103910000040C0F1FF40C00F04BF0120FFF7B0F925
:10392000204670BD010202030405060708090A0BC0
:103930000C0D0E0F1010000000000000000001022E
:103940000304060708090000000001020304000048
:10395000703900080000002044000000602C0008BE
:10396000B43900084400002094050000702C0008C1
:103970000000000000000000000000000000000047
:103980006F12833A000000000000000000000000F9
:103990000000000000000000000000000100000026
:1039A000100000000000000000127A00000000007B
:0439B0000000000013
:04000005080000ED02
:00000001FF
